:100000000C946D000C9495000C9495000C94950044
:100010000C9495000C9495000C9495000C9495000C
:100020000C9495000C9495000C9495000C949500FC
:100030000C9495000C9495000C9495000C949500EC
:100040000C9460010C9495000C94EF040C94320510
:100050000C9495000C9495000C9495000C949500CC
:100060000C9495000C94950000000007000201001C
:100070000003040600000000000000000102040864
:100080001020408001020408102001020408102002
:10009000040404040404040402020202020203032E
:1000A00003030303000000002300260029000000D2
:1000B0000000250028002B0000000000240027007D
:1000C0002A0097004A04F5051D0838089408D30C47
:1000D00028119C114E133915441511241FBECFEF62
:1000E000D8E0DEBFCDBF12E0A0E0B1E0E8EFFAE279
:1000F00002C005900D92A839B107D9F723E0A8E90D
:10010000B2E001C01D92A83BB207E1F710E0CDE6D6
:10011000D0E004C02197FE010E947415C136D107BA
:10012000C9F70E94DA030C944F150C9400000F934A
:1001300000E020E040E060E080EA92E00E943304CA
:1001400060E570E088E992E00F910C94A00B40E824
:1001500055E260E070E085EB92E00E946D056091F1
:1001600000017091010180910201909103010E94B0
:100170002C1388E992E00E945C0B61E081E00C9412
:100180006F020F931F93CF93DF93CDB7DEB72D97F9
:100190000FB6F894DEBF0FBECDBF89E993E00E9491
:1001A0002611833051F0609100017091010180911E
:1001B0000201909103010E94F11268E972E0CE0100
:1001C00001960E94620CCE0101960E945D06882372
:1001D00009F46BC062E671E085EB92E00E945E0379
:1001E00011E0CE0101960E94F907882309F44DC061
:1001F000CE0101960E948306892B99F3CE010196C8
:100200000E948E06082F682F85EB92E00E94AC04B6
:100210000A30B1F5112321F380919E0290919F0243
:10022000892B61F481E090E090939F0280939E027D
:1002300061E00E94AB0206E011E00AC010929F024A
:1002400010929E0260E081E00E94AB0204E311E0A4
:1002500063E771E0CE0101960E945E0363E871E0FE
:10026000CE0101960E945E0362EA71E0CE01019622
:100270000E945E03B801CE0101960E945E0305C094
:100280000D3009F4AECF10E0ACCF68EE73E080E043
:1002900090E00E94DB01CE0101960E94B70764EB5B
:1002A00071E085EB92E00E945E032D960FB6F89404
:1002B000DEBF0FBECDBFDF91CF911F910F9108958B
:1002C0001F920F920FB60F9211242F933F938F938B
:1002D0009F93AF93BF938091A7029091A802A091A2
:1002E000A902B091AA023091A60223E0230F2D3774
:1002F00020F40196A11DB11D05C026E8230F02962A
:10030000A11DB11D2093A6028093A7029093A8027D
:10031000A093A902B093AA028091AB029091AC0283
:10032000A091AD02B091AE020196A11DB11D8093C6
:10033000AB029093AC02A093AD02B093AE02BF911A
:10034000AF919F918F913F912F910F900FBE0F9082
:100350001F9018952FB7F8946091A7027091A8028A
:100360008091A9029091AA022FBF08953FB7F894F7
:100370008091AB029091AC02A091AD02B091AE021F
:1003800026B5A89B05C02F3F19F00196A11DB11DF0
:100390003FBFBA2FA92F982F8827820F911DA11D2B
:1003A000B11DBC01CD0142E0660F771F881F991F68
:1003B0004A95D1F70895CF92DF92EF92FF92CF93B3
:1003C000DF936B017C010E94B601EB01C114D104E3
:1003D000E104F10479F00E94B6016C1B7D0B683ECC
:1003E0007340A0F381E0C81AD108E108F108C851B0
:1003F000DC4FECCFDF91CF91FF90EF90DF90CF906B
:100400000895019739F0880F991F880F991F029757
:100410000197F1F70895789484B5826084BD84B51E
:10042000816084BD85B5826085BD85B5816085BDEF
:10043000EEE6F0E0808181608083E1E8F0E0108208
:10044000808182608083808181608083E0E8F0E049
:10045000808181608083E1EBF0E080818460808333
:10046000E0EBF0E0808181608083EAE7F0E080816A
:1004700084608083808182608083808181608083CA
:100480008081806880831092C1000895833081F05C
:1004900028F4813099F08230A1F008958630A9F0D7
:1004A0008730B9F08430D1F4809180008F7D03C013
:1004B000809180008F7780938000089584B58F7736
:1004C00002C084B58F7D84BD08958091B0008F7780
:1004D00003C08091B0008F7D8093B0000895CF93CA
:1004E000DF9390E0FC01E458FF4F2491FC01E057BA
:1004F000FF4F8491882361F190E0880F991FFC01E0
:10050000E854FF4FC591D491FC01E255FF4FA591EE
:10051000B491611109C09FB7F89488812095822316
:100520008883EC912E230BC0623061F49FB7F8945E
:100530003881822F809583238883EC912E2B2C93F6
:100540009FBF06C08FB7F894E8812E2B28838FBFFA
:10055000DF91CF9108951F93CF93DF93282F30E041
:10056000F901E859FF4F8491F901E458FF4FD49104
:10057000F901E057FF4FC491CC23C9F0162F811128
:100580000E944602EC2FF0E0EE0FFF1FE255FF4FF6
:10059000A591B4918FB7F894111105C09C91ED2FDE
:1005A000E095E92302C0EC91ED2BEC938FBFDF9136
:1005B000CF911F910895CF93DF93282F30E0F90159
:1005C000E859FF4F8491F901E458FF4FD491F901A4
:1005D000E057FF4FC491CC2391F081110E94460255
:1005E000EC2FF0E0EE0FFF1FEC55FF4FA591B491FB
:1005F000EC91ED2381E090E021F480E002C080E006
:1006000090E0DF91CF910895CF92DF92EF92FF9229
:100610000F931F93CF93DF936C01EB017B01E40EEB
:10062000F51E00E010E0CE15DF0561F06991D601FE
:10063000ED91FC910190F081E02DC6010995080F24
:10064000191FF1CFC801DF91CF911F910F91FF903A
:10065000EF90DF90CF9008956115710579F0FB015F
:1006600001900020E9F73197AF01461B570BDC01E1
:10067000ED91FC910280F381E02D099480E090E0FF
:1006800008950C942C03DC01ED91FC910190F08114
:10069000E02D09940F931F93CF93DF93EC016DE04E
:1006A0000E9443038C016AE0CE010E944303800F45
:1006B000911FDF91CF911F910F9108950F931F9379
:1006C000CF93DF93EC010E942C038C01CE010E949A
:1006D0004A03800F911FDF91CF911F910F910895D1
:1006E0008F929F92AF92BF92CF92DF92EF92FF9242
:1006F0000F931F93CF93DF93CDB7DEB7A1970FB6BC
:10070000F894DEBF0FBECDBF6C01142FE52FCB01D7
:10071000022F19A2223008F40AE07E0121E2E20E43
:10072000F11C802E912CA12CB12C612F7E2FA501C4
:1007300094010E945215029F1019112481E0E81AB9
:10074000F1081A3014F4105D01C0195CF701108330
:10075000122FE32FCA01232B242B252B31F7B701AE
:10076000C6010E942C03A1960FB6F894DEBF0FBEFF
:10077000CDBFDF91CF911F910F91FF90EF90DF9050
:10078000CF90BF90AF909F908F9008952115310525
:1007900041F4DC01ED91FC910190F081E02D642F9A
:1007A00009940C9470039A01462F50E060E070E0C9
:1007B0000C94C6030E940B020E94A700C9E2D5E078
:1007C0000E94C1002097E1F30E942905F9CF8F9282
:1007D0009F92AF92BF92CF92DF92EF92FF920F93D0
:1007E0001F93CF93DF937C018B016C0182E0C80ED5
:1007F000D11C4701E5E08E0E911CC0E0D0E0F6016F
:1008000061916F014AE050E0C8010E94D3035C018E
:100810006EE2C8010E9443038A0D9B1DC80FD91FB9
:10082000C814D90461F74AE050E0F7016581C801B6
:100830000E94D3038C0F9D1FDF91CF911F910F91C9
:10084000FF90EF90DF90CF90BF90AF909F908F90F0
:1008500008952BED31E0FC01318320831282138255
:100860001482158208950F93FC018BED91E0918322
:10087000808362834383248305830F910895FB0162
:100880004081518162817381FC014283538364837F
:1008900075830895EFEAF2E08BED91E09183808318
:1008A00012821382148215820895FC0124853585F5
:1008B000F901E05CFF4F8081918132962081318186
:1008C000821B930B8F7399270895DC011C96ED9181
:1008D000FC911D97DF01A05CBF4F2D913C911197BA
:1008E00012968D919C9111972817390739F08D91A7
:1008F0009C91E80FF91F808190E008958FEF9FEFA2
:100900000895FC01A485B585FD01E05CFF4F2081C1
:1009100031813296808191812817390779F0808161
:100920009181A80FB91F8C91208131812F5F3F4F9A
:100930002F7333273183208390E008958FEF9FEF4B
:100940000895FC0181A1882329F0A489B5898C919F
:1009500086FFFBCF11A208950F931F93CF93DF93D0
:10096000FC01A685B7858D01005C1F4FE8018881D9
:10097000998101968F739927AD014E5B5F4FEA0114
:100980002881398182179307D1F3E80128813981C1
:10099000A20FB31F6C93A685B785A05CBF4F1196BD
:1009A0009C938E93A689B7892C9181E090E0078C67
:1009B00002C0880F991F0A94E2F7822B8C9381E082
:1009C00081A30488F589E02D80818064808381E0A3
:1009D00090E0DF91CF911F910F91089508951F929C
:1009E0000F920FB60F9211242F934F935F938F9313
:1009F0009F93EF93FF938091C00082FD1CC02091D4
:100A0000C60080915B0390915C0301968F739927D8
:100A100040915D0350915E038417950771F0E0915A
:100A20005B03F0915C03E55EFC4F208390935C03D5
:100A300080935B0302C08091C600FF91EF919F916C
:100A40008F915F914F912F910F900FBE0F901F903C
:100A5000189585EB92E00E945504892B11F00C94B7
:100A6000EE0408951F920F920FB60F9211242F9348
:100A70003F938F939F93EF93FF93209117033091B0
:100A800018038091190390911A032817390731F43C
:100A90008091C1008F7D8093C10014C0E091190343
:100AA000F0911A03E952FD4F208180911903909132
:100AB0001A0301968F73992790931A038093190351
:100AC0002093C600FF91EF919F918F913F912F91BD
:100AD0000F900FBE0F901F901895CF92DF92EF925C
:100AE000FF920F931F93CF93DF93EC016A017B0179
:100AF0004115514E6105710509F1EC89FD8981E0CF
:100B000090E008A002C0880F991F0A94E2F7808342
:100B100060E079E08DE390E0A70196010E94521514
:100B200089019A010150110921093109369527954A
:100B300017950795980101151041A8F0EC89FD89DA
:100B4000108260E874E88EE190E0A70196010E94AF
:100B50005215DA01C9010197A109B109B695A79506
:100B6000979587959C01E889F9893083EA89FB8903
:100B7000208319A2EE89FF89408181E090E09C01E9
:100B80000C8C02C0220F331F0A94E2F7242B20831F
:100B9000EE89FF8940819C010D8C02C0220F331F1A
:100BA0000A94E2F7242B2083EE89FF8940819C017F
:100BB0000E8C02C0220F331F0A94E2F7242B2083ED
:100BC000EE89FF8920810F8C02C0880F991F0A943B
:100BD000E2F7809582238083DF91CF911F910F915F
:100BE000FF90EF90DF90CF900895E5EBF2E0138255
:100BF000128288EE93E0A0E0B0E084839583A68320
:100C0000B78381EE91E0918380838BE193E09587B8
:100C1000848787ED92E09787868785EC90E0918BBB
:100C2000808B84EC90E0938B828B80EC90E0958BB2
:100C3000848B81EC90E0978B868B82EC90E0918F97
:100C4000808F86EC90E0938F828F84E0848F83E0A6
:100C5000858F87E0868F85E0878F81E080A3089568
:100C6000CF93DF931F92CDB7DEB76983DC01ED919F
:100C7000FC910280F381E02D41E050E0BE016F5F06
:100C80007F4F09950F90DF91CF910895CF93DF9318
:100C9000EC01E881F9810480F581E02DCE01099510
:100CA000892B41F0E881F9810680F781E02DCE01A2
:100CB0000995EFCFDF91CF91089521E0FC01848564
:100CC000843009F420E0822F08950F931F93CF936F
:100CD000DF938C01D42FC52FFC018485843041F42F
:100CE00081E090E0F8019383828380E090E006C089
:100CF0000E94E30F892BA1F38D2F9C2FDF91CF91C1
:100D00001F910F910895FC016485643021F087E8FC
:100D100093E00C94B70D80E090E00895CF93DF93BB
:100D20001F92CDB7DEB741E050E0BE016F5F7F4F4D
:100D3000FC0184850E943410181619061CF4898160
:100D400090E002C08FEF9FEF0F90DF91CF91089559
:100D5000FC0184850C9434100F931F93CF93DF9381
:100D60001F92CDB7DEB78C01DC01ED91FC910480C0
:100D7000F581E02D0995892B51F0BE016F5F7F4F02
:100D8000F80184850E947A10898190E002C08FEF7B
:100D90009FEF0F90DF91CF911F910F910895CF9208
:100DA000DF92EF92FF920F931F93CF93DF93CDB714
:100DB000DEB7AF970FB6F894DEBF0FBECDBF8C0184
:100DC0006B017A01CE0101960E942904CE01099699
:100DD0000E94C614CE018A960E94290465E673E03B
:100DE000CE0184960E942808BE016C5D7F4FCE0123
:100DF00001960E944608AE01465D5F4FB601CE01E6
:100E000001960E94B80A81309105C1F4D801ED9194
:100E1000FC910484F585E02D8BED91E09DA38CA3DE
:100E20008CA59DA5AEA5BFA58EA39FA3A8A7B9A776
:100E3000A701BE016C5D7F4FC8010995AF960FB643
:100E4000F894DEBF0FBECDBFDF91CF911F910F9100
:100E5000FF90EF90DF90CF900895FC0113821282F3
:100E600088EE93E0A0E0B0E084839583A683B78307
:100E700081EF91E09183808364870895FC018485EC
:100E8000843039F090E0982F88278D5F9B4F0C9429
:100E9000430D80E00895AF92BF92CF92DF92EF9220
:100EA000FF920F931F93CF93DF93FC01248524308F
:100EB00009F03EC06A018B01EC0183E0A82E84E0BA
:100EC000B82EE12CF12CC5010E94430D811102C006
:100ED000EC860BC08B7F8831D9F3FFEFEF1AFF0A46
:100EE000B394E4E0EE16F10471F78C85843001F1DF
:100EF00020910401309105012F5F3F4F11F420E054
:100F000034E0309305012093040140910401509195
:100F1000050120E061E00E94590FB8016E5F7F4F2C
:100F2000A6018C850E94A50F811105C084E08C87E5
:100F300080E090E011C0CE010E943E07873151F061
:100F400061E070E080E090E00E94DB01CE010E9451
:100F50003E07EACF81E090E0DF91CF911F910F91A2
:100F6000FF90EF90DF90CF90BF90AF900895CF9219
:100F7000DF92EF92FF92CF93DF93EC018C85843068
:100F800089F10E94DC0F0E94AA016B017C01CE0155
:100F90000E943E078823A1F00E94AA01DC01CB0138
:100FA0008C199D09AE09BF09883E9340A105B10582
:100FB00038F461E070E080E090E00E94DB01E7CF70
:100FC000CE010E943E07882319F08C850E944B0FAA
:100FD000EC85F0E0EE0FFF1FE359FC4F1182108209
:100FE00084E08C87DF91CF91FF90EF90DF90CF90DE
:100FF0000895CF93DF93FC0124852430D1F0EC01D8
:101000000E943E07843181F0882371F0883161F0BD
:101010008C3161F4E881F9810480F581E02DCE0105
:10102000099521E0892B19F420E001C021E0822FED
:1010300001C080E0DF91CF9108950F9300E020E0A0
:1010400040E060E08FE593E00E9433040F91089543
:101050002BED31E0FC0131832083FB014281538180
:1010600064817581FC014283538364837583089591
:101070000F9300E020E040E060E085E793E00E940D
:10108000330485E693E00F910C942904FB0142811F
:10109000538164817581FC0142835383648375832A
:1010A000178216820895CF93DF93DA01FB01EB01DB
:1010B00089918111FDCF20E030E080E090E04AE0AE
:1010C00051915523F1F0843091054CF55E3261F475
:1010D0002F3F310509F01CF5ED01C80FD91F2A83F8
:1010E000019620E030E0ECCF429FB001439F700DAD
:1010F0001124252F550F330B20533109260F371F8D
:10110000DFCF2F3F310509F054F4843091053CF4D2
:10111000FD01E80FF91F228381E090E002C080E02A
:1011200090E0DF91CF9108950F9300E020E040E040
:1011300060E08BE793E00E9433040F9108958F9253
:101140009F92AF92BF92CF92DF92EF92FF920F9356
:101150001F93CF93DF9300D01F92CDB7DEB77C01F2
:101160006B010E94AA01F701778366838701085FFC
:101170001F4FB7016A5F7F4F42E050E0C8010E94F5
:10118000C11381E090E09A83898342E050E0BE0180
:101190006F5F7F4FC8010E94C11380E091E09A8386
:1011A000898342E050E0BE016F5F7F4FC8010E941B
:1011B000C1131A82198242E050E0BE016F5F7F4F77
:1011C000C8010E94C11342E050E0BE016F5F7F4F33
:1011D000C8010E94C11342E050E0BE016F5F7F4F23
:1011E000C8010E94C1135601F5018081882329F1AD
:1011F000C6017C01FC0120810196211116C0570116
:1012000047018C189D081814190494F48B8241E04E
:1012100050E0BE016D5F7F4FC8010E94C113A40161
:10122000B601C8010E94C11303C02E3211F7E7CFE7
:101230006701FFEFCF1ADF0AD7CF1B8241E050E0F2
:10124000BE016D5F7F4FC8010E94C113E12CFF24D6
:10125000F394FA82E98242E050E0BE016F5F7F4F73
:10126000C8010E94C113FA82E98242E050E0BE0147
:101270006F5F7F4FC8010E94C11381E090E00F9023
:101280000F900F90DF91CF911F910F91FF90EF90F2
:10129000DF90CF90BF90AF909F908F9008954F9226
:1012A0005F926F927F928F929F92AF92BF92CF92F6
:1012B000DF92EF92FF920F931F93CF93DF93CDB7FF
:1012C000DEB765970FB6F894DEBF0FBECDBF6C01D9
:1012D0005B017A010E94AA012B013C018601085F93
:1012E0001F4F4501A12CB12CC8010E9436141816BD
:1012F0001906A4F00E94AA01DC01CB01841995090A
:10130000A609B70988169906AA06BB06D0F062E3BB
:1013100070E080E090E00E94DB01E6CFF6014281C0
:10132000538164817581818D928DA38DB48D481711
:1013300059076A077B0741F4858D968DC59721F47F
:1013400006C02FEF3FEFFCC02EEF3FEFF9C0C80102
:101350000E9474130C970CF4F1C04CE050E0BE01F5
:101360006F5F7F4FC8010E94FE132B813C813227A3
:10137000232732273A8B298BF601468157818981B1
:101380009A814817590711F437FD06C0C8010E9419
:101390008E132CEF3FEFD4C02F703270232B31F01F
:1013A000C8010E948E132BEF3FEFCAC0CF80D884B4
:1013B000DC24CD24DC24C114D10431F4C8010E9402
:1013C0008E132AEF3FEFBCC0A12CB12C8D819E81E2
:1013D000982789279827A816B90640F541E050E0DC
:1013E000BE01635F7F4FC8010E94FE138D8581118E
:1013F00013C08D858111F2CFC8010E94D513C80199
:101400000E94D513C8010E94D513C8010E94D513AC
:10141000FFEFAF1ABF0ADACF8D859FEF980F9D8738
:10142000882339F3C8010E94D513F6CFA12CB12C23
:1014300041E050E0BE016D5E7F4FC8010E94FE1387
:101440008B89982F907C61F4882371F08B899FEFB2
:10145000980F9B8B882341F0C8010E94D513F6CFCB
:10146000C8010E94D5131B8A8B898111E1CF42E00C
:1014700050E0BE01615F7F4FC8010E94FE1342E051
:1014800050E0BE01635F7F4FC8010E94FE13C80198
:101490000E94D513C8010E94D513C8010E94D5131C
:1014A000C8010E94D51342E050E0BE016F5E7F4F3D
:1014B000C8010E94FE138F8598898115914001F51E
:1014C0002D853E8532272327322721303105C1F46F
:1014D00089899A898115944031F0C8010E948E1340
:1014E00027EF3FEF2DC0B7016E5F7F4F44E050E024
:1014F000C8012C8B3D8B0E94FE132C893D8920C096
:10150000812C912C89899A89982789279827881670
:10151000990638F4C8010E94D5138FEF881A980AEB
:10152000F1CFEFEFAE1ABE0AAC14BD0409F080CFC4
:10153000C8010E948E1326EF3FEF02C02DEF3FEF50
:10154000C90165960FB6F894DEBF0FBECDBFDF911F
:10155000CF911F910F91FF90EF90DF90CF90BF90B0
:10156000AF909F908F907F906F905F904F90089575
:101570008F929F92AF92BF92CF92DF92EF92FF92A3
:101580000F931F93CF93DF9300D000D000D0CDB73F
:10159000DEB77C014B015A010E9453088C01892B54
:1015A00009F05BC0F70142815381648175818091AC
:1015B0007D0390917E03A0917F03B0918003481733
:1015C00059076A077B0709F44BC00E94AA0167010B
:1015D000F8E0CF0ED11C6F7077277C5FC6010E94A8
:1015E0008914813009F03EC08BED91E09A838983A4
:1015F000F70182819381A481B5818B839C83AD8324
:10160000BE8345E350E0BE016F5F7F4FC6010E947D
:10161000B513892B19F400E010E01BC0B401C70119
:101620000E949F08892BB9F3C6010E94BD13892B24
:1016300091F383E0882E912CA50168E873E1C7013E
:101640000E944F098C01F1E08F1A910811F0019668
:1016500099F3C6010E94A01305C001E010E002C08A
:101660000EEF1FEFC80126960FB6F894DEBF0FBE2F
:10167000CDBFDF91CF911F910F91FF90EF90DF9041
:10168000CF90BF90AF909F908F900895CF93DF93AE
:101690001F92CDB7DEB76983DC01ED91FC9102802A
:1016A000F381E02D41E050E0BE016F5F7F4F09956F
:1016B0000F90DF91CF910895EF92FF920F931F93B8
:1016C000CF93DF93CDB7DEB72D970FB6F894DEBF7B
:1016D0000FBECDBF7C0100E010E0602FCE0101966F
:1016E0000E942D07CE0101960E943E07811116C06F
:1016F000F7014481558120E061E0802F0E94590F5D
:10170000802F0E94910FF70184819581000F111F96
:10171000F801E359FC4F9183808305C00F5F1F4F91
:1017200004301105D1F62D960FB6F894DEBF0FBE2A
:10173000CDBFDF91CF911F910F91FF90EF90089552
:10174000FC01138212828DE092E091838083758385
:1017500064830895AF92BF92CF92DF92EF92FF928F
:101760001F93CF93DF93CDB7DEB72D970FB6F894C5
:10177000DEBF0FBECDBF7C019DE6A92E93E0B92E42
:1017800010E0C12CD12C612FCE0101960E942D07B3
:10179000D5012D913D915D01F70184819581281737
:1017A0003907B1F4CE0101960E943E07843169F0F9
:1017B000CE0101960E943E078C3151F4CE01019674
:1017C0000E948306892B91F003C0CC24C394D12CB2
:1017D0001F5F1430C1F6CD2871F4D701ED91FC9153
:1017E0000480F581E02DC701099505C0CE01019661
:1017F0000E94B707EDCF2D960FB6F894DEBF0FBE4F
:10180000CDBFDF91CF911F91FF90EF90DF90CF90F0
:10181000BF90AF9008956F927F928F929F92AF92F8
:10182000BF92CF92DF92EF92FF921F93CF93DF93FD
:10183000CDB7DEB72D970FB6F894DEBF0FBECDBF84
:101840005C014B013A010E94AA0B8DE6C82E83E091
:10185000D82E10E0E12CF12C612FCE0101960E94D0
:101860002D07F601219131916F01F5018481958158
:101870002817390731F4CE0101960E943E078731BF
:10188000C1F01F5F143041F7C7012D960FB6F894D1
:10189000DEBF0FBECDBFDF91CF911F91FF90EF90C4
:1018A000DF90CF90BF90AF909F908F907F906F9080
:1018B0000895A301B401CE0101960E946506E80EC9
:1018C000F91EDFCFAF92BF92CF92DF92FF920F93BC
:1018D0001F93CF93DF93CDB7DEB72D970FB6F89454
:1018E000DEBF0FBECDBF8C015B01CB010E94AA0BF6
:1018F0008DE6C82E83E0D82EF12C6F2DCE010196F7
:101900000E942D07F601219131916F01F50184812B
:1019100095812817390761F4CE0101960E943E0790
:10192000873179F0CE0101960E943E078C3149F053
:10193000F394F4E0FF12E1CF64E0C8010E942D07A8
:1019400021C0CE0101960E948306892B89F38B81E9
:101950009C81F801938382838D819E81AF81B885BC
:1019600084839583A683B78389859A85AB85BC8557
:1019700080879187A287B38781EF91E091838083ED
:101980008D858487C8012D960FB6F894DEBF0FBEF3
:10199000CDBFDF91CF911F910F91FF90DF90CF903E
:1019A000BF90AF9008950F9300E020E040E060E02A
:1019B00081E893E00E9433040F9108958EBD0DB429
:1019C00007FEFDCF8EB508952A9808952A9A0895A6
:1019D0001F93CF93DF9300D0CDB7DEB7182F6A8364
:1019E00099830E94E40C80EF0E94DE0C9981892F7C
:1019F0000E94DE0C812F0E94DE0C6A81862F0E94DD
:101A0000DE0C0E94E60C81E00F900F90DF91CF91E9
:101A10001F9108959B0190E00496982F8827642FCA
:101A2000820F931F0C94E80CCF92DF92EF92FF92FB
:101A30000F931F93CF93DF93EC017A018B016C011D
:101A4000C40ED51ECC15DD05A1F00E94E40C80EF7C
:101A50000E94DE0C8D2F0E94DE0C8C2F0E94DE0C6B
:101A60002196F80181918F010E94DE0C0E94E60C04
:101A7000E9CFC701DF91CF911F910F91FF90EF90B8
:101A8000DF90CF9008951F93CF93DF931F92CDB730
:101A9000DEB7182F99830E94E40C8FE00E94DE0CC1
:101AA0009981892F0E94DE0C812F0E94DE0C80E03C
:101AB0000E94DE0C89830E94E60C89810F90DF91E1
:101AC000CF911F91089590E00496982F8827860F54
:101AD000971F0C94430D1F93CF93DF93182F60E251
:101AE00070E00E94630DC82FD0E061E270E0812FAA
:101AF0000E94630DDC2FCC279E01282BC901DF91AA
:101B0000CF911F910895FF920F931F93CF93DF936F
:101B1000F62EC0E0D0E08F2D0E946B0D8C01892B3A
:101B200021F08F2D0E946B0DEC01C017D10799F7A2
:101B3000CE01DF91CF911F910F91FF9008951F93D8
:101B4000CF93DF93182F66E270E00E94630DC82FD9
:101B5000D0E067E270E0812F0E94630DDC2FCC277C
:101B60009E01282BC901DF91CF911F910895FF920B
:101B70000F931F93CF93DF93F62EC0E0D0E08F2D0D
:101B80000E949F0D8C01892B21F08F2D0E949F0DAB
:101B9000EC01C017D10799F7CE01DF91CF911F91CA
:101BA0000F91FF9008956F927F928F929F92AF92C4
:101BB000BF92CF92DF92EF92FF920F931F93CF933A
:101BC000DF931F92CDB7DEB7882E962E6A0159019A
:101BD00064E270E0892D99830E94630DE82EF12C58
:101BE00065E270E0892D0E94630DFE2CEE24E82A48
:101BF00037016C0C7D1CA3015770E82C9981F92EDC
:101C0000E90CF11CE90CF11CF70180819181840F32
:101C1000951F9A01200F311F2130384098F060E065
:101C200078E06B01C41AD50AA601B5010E94140D13
:101C3000A8014C195D09B5016C0D7D1DF70180816E
:101C4000918102C0A801B5010E94140D060D171D57
:101C5000412F64E270E0892D0E940A0D402F65E259
:101C600070E0892D0F90DF91CF911F910F91FF9020
:101C7000EF90DF90CF90BF90AF909F908F907F902C
:101C80006F900C940A0D0F931F9389019A0140E005
:101C900050E00E94D30D1F910F910895CF92DF92D3
:101CA000EF92FF920F931F93CF93DF93EC017A0192
:101CB0008B016C01C40ED51ECC15DD05A9F00E9468
:101CC000E40C8FE00E94DE0C8D2F0E94DE0C8C2F26
:101CD0000E94DE0C219680E00E94DE0CF8018193C8
:101CE0008F010E94E60CE8CFC701DF91CF911F91D1
:101CF0000F91FF90EF90DF90CF900895CF92DF92F9
:101D0000EF92FF920F931F93CF93DF936901577068
:101D10007C01E60EF11CE60EF11CF7018085918531
:101D2000840F951F9A01200F311F2130384098F001
:101D3000E0E0F8E0EF01C41BD50BAE01B6010E9454
:101D40004E0EA8014C1B5D0BB6016C0F7D1FF701F9
:101D50008085918502C0A801B601DF91CF911F91C6
:101D60000F91FF90EF90DF90CF900C944E0E8F92DA
:101D70009F92AF92BF92CF92DF92EF92FF920F931A
:101D80001F93CF93DF936C01962E5A017901802E19
:101D900068E270E0892D0E94630DC82FD0E069E2EF
:101DA00070E0892D0E94630DDC2FCC27C82B8701A2
:101DB0009501AE01692DC6010E947E0E81101AC0E8
:101DC000CE0DDF1D4D2F68E270E0892D0E940A0DB7
:101DD0004C2F69E270E0892DDF91CF911F910F9117
:101DE000FF90EF90DF90CF90BF90AF909F908F903B
:101DF0000C940A0DDF91CF911F910F91FF90EF90FE
:101E0000DF90CF90BF90AF909F908F900895CF9329
:101E1000C62F61E070E08C2F0E940A0D61E070E037
:101E20008C2F0E94630D8111F9CFCF91089590E01E
:101E3000982F882744E050E0845F9B4F0C94140D4A
:101E400062E070E00C94630DCF93DF93C82FD62F20
:101E5000472F64E070E00E940A0D4D2F65E070E0AE
:101E60008C2FDF91CF910C940A0D462F62E070E029
:101E70000C940A0DCF93DF93C82FD62F472F60E124
:101E800070E00E940A0D4D2F61E170E08C2FDF9110
:101E9000CF910C940A0DCF93C82F40E150E0682FEA
:101EA00087E893E00E94070F6FEF8C2FCF910C947F
:101EB000350FFF920F931F93CF93DF939FEF960FF2
:101EC000953040F5D22F8A01F62EC82F0E944B0F75
:101ED0004F2D4D2B60E070E08C2F0E940A0D0115F4
:101EE000110511F0B8010AC0609197037091980331
:101EF0006F5F7F4F70939803609397038C2F0E94BE
:101F0000240F41E050E06C2F87E893E00E94070F18
:101F100081E001C080E0DF91CF911F910F91FF9090
:101F20000895CF93C82F63E070E00E94630D833162
:101F300049F442E050E06C2F87E893E00E94070FDD
:101F400081E001C080E0CF9108950F931F93CF935C
:101F5000FB0190819F3F51F491819F3F91F49281C9
:101F60009F3F79F493819F3F61F420C0911109C094
:101F70009181911106C09281911103C0938199239F
:101F8000B1F04115510591F08A01BF01C82F0E949F
:101F9000170FB8018C2F0E943A0F44E050E06C2FCD
:101FA00087E893E00E94070F91E001C090E0892F3D
:101FB000CF911F910F91089548E050E0682F87E876
:101FC00093E00C94070FCF92DF92EF92FF920F9362
:101FD0001F93CF93C82F7B018A014130584010F0E6
:101FE00000E018E06C2F87E893E00E94830D6C01FD
:101FF00063E070E08C2F0E94630D873111F08C310B
:1020000021F4C016D10670F302C000E010E0980180
:10201000A7016C2F87E893E00E94430E40E250E056
:102020006C2F87E893E00E94070F8C2F0E94200FEF
:1020300084FD0DC063E070E08C2F0E94630D811160
:10204000F4CF8C2F0E944B0F80E090E005C060E140
:102050008C2F0E94350FC801CF911F910F91FF90D7
:10206000EF90DF90CF900895CF92DF92EF92FF92A2
:102070000F931F93CF93DF93182F6B017A01682F73
:1020800087E893E00E94B70DEC01009799F463E0B4
:1020900070E0812F0E94630D843111F1882301F1DA
:1020A000C1E0D0E08C3111F4C0E0D0E0D195C19511
:1020B000D10916C0E816F9060CF4E7011C161D0636
:1020C0007CF400E09E01A601612F87E893E00E9466
:1020D000B70E40E450E0612F87E893E00E94070FBD
:1020E000CE01DF91CF911F910F91FF90EF90DF9084
:1020F000CF9008950F93AB0101E021E030E0682F0D
:1021000087E893E00E94B70E81E090E00F91089578
:10211000AF92BF92CF92DF92FF920F931F93CF9314
:10212000DF93F82E6B015A01E901682F87E893E0ED
:102130000E94830D8C179D0730F46F2D87E893E084
:102140000E94830DEC018E019501A6016F2D87E899
:1021500093E00E94D30DCE01DF91CF911F910F919B
:10216000FF90DF90CF90BF90AF9008950F931F9393
:10217000CF93FB019081911109C09181911106C00B
:102180009281911103C09381992379F041155105F2
:1021900061F08A01BF01C82F0E94170FB8018C2F70
:1021A0000E943A0F81E090E002C080E090E0CF9181
:1021B0001F910F910895CF93C82F40E250E0682FF0
:1021C00087E893E00E94070F8C2F0E94200F84FD68
:1021D0000CC08C2F0E94200F83FFF6CF68E18C2F5C
:1021E0000E94350F80E090E006C060E18C2F0E94D5
:1021F000350F81E090E0CF910895CF93CB01FA01A4
:1022000001900020E9F731979F01241B350BFB015A
:1022100001900020E9F73197BF01681B790B0E94FC
:1022200036118F3F79F0CAE068E873E180E090E012
:102230000E94DB010E947811982F9D7F21F4C150EC
:1022400099F701C084E090E0CF9108950C94781143
:102250000F9300E020E040E060E08AE993E00E9414
:1022600033040F910C9434110C94A711DF92EF9268
:10227000FF920F931F93CF93DF9300D01F92CDB7A0
:10228000DEB77C01D62E8A012B830E94F8110E94B2
:10229000DA1162E081E10E94D51240E06D2DC701A4
:1022A0000E944D1241E02B81622FC8010E944D1205
:1022B0000E94F8111A8219829E012F5F3F4FAE01D2
:1022C0004E5F5F4F61E081E10E948912892B11F41A
:1022D0008FEF8A830E94DE118A810F900F900F90FA
:1022E000DF91CF911F910F91FF90EF90DF900895B4
:1022F000CF93DF9300D0CDB7DEB70E94F8110E94D4
:10230000DA1160E080E20E94D5120E94F8118FEF8E
:102310008A8319829E012F5F3F4FAE014E5F5F4F50
:1023200061E080E20E9489120E94DE118A810F9092
:102330000F90DF91CF9108950F9300E020E040E0EF
:1023400060E080EA93E00E9433040F91089561E019
:102350008DE00E946F0261E08BE00E946F0261E0FD
:102360008AE00E946F0261E08AE00E946F0260E0F2
:1023700087E00E946F0261E089E00E946F0260E0E6
:102380008DE00E94AB0260E08BE00E94AB0261E056
:102390008AE00E94AB0261E08AE00E94AB0260E04A
:1023A00089E00E94AB028CB580618CBD8CB58064E5
:1023B0008CBD089560E08AE00C94AB0261E08AE095
:1023C0000C94AB02CF93DF931F92CDB7DEB7898316
:1023D00089818EBD0DB407FEFDCF8EB52AE030E0B9
:1023E000000021503109E1F70F90DF91CF9108955E
:1023F00087E00E94DB02892BD9F70895CF93DF9302
:10240000EC018FEF0E94E21188838AE090E00000E7
:102410000197E9F7DF91CF9108951F93CF93DF9351
:10242000182FEB01CB010E94FE1121E030E08881E2
:10243000811711F020E030E0C901DF91CF911F91A9
:102440000895CF93DF931F92CDB7DEB71982CE01E7
:1024500001960E94FE1189810F90DF91CF9108951E
:102460000F931F93CF93C82F09EE13E00E94211200
:102470008F3E39F00150110939F08C13F7CF8C2FB2
:1024800003C08FEF9FEF05C021E090E08C1320E0A8
:10249000822FCF911F910F910895DF92EF92FF92BB
:1024A0000F931F93CF93DF937C01C62FD42E862FDB
:1024B0000E94E2118701D0E0C8018E199F098C1794
:1024C0009D0734F4F80181918F010E94E211F4CF4D
:1024D000F1E0DF120AC08EEEDF91CF911F910F91D4
:1024E000FF90EF90DF900C94E211DF91CF911F915C
:1024F0000F91FF90EF90DF900895CF93DF93EC0161
:102500008FEF0E94E211209709F08883DF91CF912D
:102510000895CF92DF92EF92FF920F931F93CF9384
:10252000DF931F92CDB7DEB7182F062F6A0179010E
:10253000198280EE0E943012892B19F480E090E01D
:102540002AC0CE0101960E94FE1110688981811374
:10255000F5CFCE0101960E94FE1189818013EECF46
:10256000C7010E947D1200E010E0F701608170E079
:102570000617170744F4C601800F911F0E94FE1131
:102580000F5F1F4FF2CFBE016F5F7F4F8EEE0E9435
:102590000D1281E090E00F90DF91CF911F910F918C
:1025A000FF90EF90DF90CF900895CF93DF93D82FD7
:1025B000C62F80EE0E94E2118AE090E00E940102A4
:1025C0008D2F8F770E94E2118C2F0E94E211C11192
:1025D00005C08EEEDF91CF910C94E211DF91CF9187
:1025E0000895EF92FF920F931F93CF93DF938C0187
:1025F0007B0163E172E085EB92E00E945E0389E972
:1026000093E00E942611C82FD0E02397C9F068E21A
:1026100072E085EB92E00E944103B80185EB92E005
:102620000E945E03A701B80189E993E00E94FD10B2
:10263000EC0164EF71E080E090E00E94DB01E5CF07
:102640006CE472E085EB92E0DF91CF911F910F91E6
:10265000FF90EF900C945E030F931F93CF93DF9343
:1026600000D0CDB7DEB78C0189E993E069837A8326
:102670000E94261169817A818F3F39F46CE572E0FE
:1026800085EB92E00E945E03FFCFC8010F900F9090
:10269000DF91CF911F910F910C94F1120F9300E0F5
:1026A00020E040E060E086EA93E00E9433040F916E
:1026B0000895DC01ED91FC91008CF18DE02D0994E1
:1026C0002BED31E0FC0131832083FB0141895289EC
:1026D00063897489FC0142835383648375830895FD
:1026E000FC01858996890895FC01818D928D08955C
:1026F000CF93DF931F92CDB7DEB76983DC01ED91F5
:10270000FC910280F381E02D41E050E0BE016F5F5B
:102710007F4F09950F90DF91CF910895CF93DF936D
:10272000EC01898D9A8D892B41F0E881F981068031
:10273000F781E02DCE010995F4CFDF91CF91089577
:10274000CF93DF93EC018C85843061F00E944B0FB6
:10275000EC85F0E0EE0FFF1FE359FC4F1182108271
:1027600084E08C87DF91CF910895FC01108E178A49
:102770006E5F7F4F84850C94B610FC0184850C94A9
:10278000DB10CF93DF93EC019A018F89988DAB0119
:10279000BC018C850E9488102F89388D280F391F25
:1027A000388F2F8BDF91CF9108950F931F93CF9385
:1027B000DF931F92CDB7DEB7FC01218D328D232B25
:1027C00061F08C0141E050E0BE016F5F7F4F848576
:1027D0000E943410181619061CF08FEF9FEF08C0E6
:1027E000F801818D928D0197928F818F898190E080
:1027F0000F90DF91CF911F910F910895CF93DF93A9
:10280000FC01218D328D2115310519F48FEF9FEFD9
:1028100011C0EC014217530708F0A9018C850E94F2
:1028200034101816190694F7298D3A8D281B390B88
:102830003A8F298FDF91CF910895CF93DF931F9225
:10284000CDB7DEB7FC01218D328D232B49F0BE01BF
:102850006F5F7F4F84850E947A10898190E002C06B
:102860008FEF9FEF0F90DF91CF9108950F931F93FC
:10287000CF93DF93CDB7DEB728970FB6F894DEBFBE
:102880000FBECDBF8C01DC01ED91FC910284F3857C
:10289000E02D0995F801648587E893E00E94B70D63
:1028A000892B51F148E050E0BE016F5F7F4FD801A6
:1028B0001C968C910E9434109C0118161906D4F4B1
:1028C000BE016F5F7F4FC8010F960E943F048D814C
:1028D00090E0982F88272E81820F911DF801968B0A
:1028E000858B2F8130E0322F22278885280F311DDC
:1028F000328F218FC90102C080E090E028960FB688
:10290000F894DEBF0FBECDBFDF91CF911F910F9125
:102910000895CF92DF92EF92FF920F931F93CF9380
:10292000DF93FC012485243011F080E026C08B0168
:10293000EC0183E0C82E84E0D82EE12CF12CC601F6
:102940000E94430D811102C0EC860AC08831E1F378
:10295000FFEFEF1AFF0AD394E4E0EE16F10479F7E3
:102960008C85843011F31E870D871A8E198E20E016
:10297000A80162E00E94590F81E0DF91CF911F9181
:102980000F91FF90EF90DF90CF900895FC0113829C
:10299000128288EE93E0A0E0B0E084839583A68362
:1029A000B78388E792E09183808384E08487CF01B6
:1029B0000F960C942904CF92DF92EF92FF920F931F
:1029C0001F93CF93DF93CDB7DEB7AF970FB6F894D1
:1029D000DEBF0FBECDBF8C016B017A01CE01019627
:1029E0000E942904CE0109960E94C614CE018A963F
:1029F0000E94290465E673E0CE0184960E942808AF
:102A0000BE016C5D7F4FCE0101960E944608AE016B
:102A1000465D5F4FB601CE0101960E94B80A813033
:102A20009105C1F4D801ED91FC910088F189E02D68
:102A30008BED91E09DA38CA38CA59DA5AEA5BFA514
:102A40008EA39FA3A8A7B9A7A701BE016C5D7F4F66
:102A5000C8010995AF960FB6F894DEBF0FBECDBF83
:102A6000DF91CF911F910F91FF90EF90DF90CF906A
:102A700008950F9300E020E040E060E08CEA93E0EE
:102A80000E9433040F9108950F9300E020E040E08E
:102A900060E082EB93E00E9433040F910895F89474
:102AA0000C947A15A1E21A2EAA1BBB1BFD010DC0C6
:102AB000AA1FBB1FEE1FFF1FA217B307E407F507EE
:102AC00020F0A21BB30BE40BF50B661F771F881FCA
:102AD000991F1A9469F760957095809590959B0160
:102AE000AC01BD01CF010895EE0FFF1F0590F491D9
:082AF000E02D0994F894FFCFDA
:102AF800C801D30100047B22726573756C74223A95
:102B0800203230302C202274797065223A202272CB
:102B1800656C6179222C2022737461747573223A72
:102B280020317D007B22726573756C74223A2032E5
:102B380030302C202274797065223A202272656C1C
:102B48006179222C2022737461747573223A2030C3
:102B58007D00436C69656E7420636F6E6E65637487
:102B6800656400485454502F312E312032303020C3
:102B78004F4B00436F6E74656E742D547970653ACF
:102B8800206170706C69636174696F6E2F6A736F0E
:102B98006E00436F6E6E656374696F6E3A20636C86
:102BA8006F736500436C69656E7420646973636F45
:102BB8006E6E656374656400363736363836333082
:102BC800303000526F6D0000000000E70300000085
:102BD80000AC040403550481046504A1040000004A
:102BE800003006650683068E06AC0646064B07CF00
:102BF80006A806B707F9075D0600000000460B0B9C
:102C08000C5C0B436F6E6E656374696E6720746F3E
:102C1800204150202E2E2E00417474656D70746909
:102C28006E6720746F20636F6E6E65637420746FB7
:102C38002057504120535349443A2000436F6E6E49
:102C4800656374656420746F204150005769466954
:102C580020736869656C64206E6F74207072657388
:102C6800656E7400000000007813C1137413D51347
:102C78001D148E138914A013B513DB14BD13361459
:082C8800FE13591360137013D1
:00000001FF
