:100000000C94EA000C9412010C9412010C9412014D
:100010000C9412010C9412010C9412010C94120114
:100020000C9412010C9412010C9412010C94120104
:100030000C9412010C9412010C9412010C941201F4
:100040000C9432020C9412010C9403050C94460596
:100050000C9412010C9412010C9412010C941201D4
:100060000C9412010C941201000000070002010020
:100070000003040600000000000000000102040864
:100080001020408001020408102001020408102002
:10009000040404040404040402020202020203032E
:1000A00003030303000000002300260029000000D2
:1000B0000000250028002B0000000000240027007D
:1000C0002A0000407A10F35A00A0724E180900105E
:1000D000A5D4E80000E87648170000E40B540200BD
:1000E00000CA9A3B000000E1F505000080969800E8
:1000F000000040420F000000A08601000000102711
:1001000000000000E80300000000640000000000A0
:100110000A00000000000100000000002C76D888D2
:10012000DC674F0823DFC1DFAE59E1B1B796E5E3E5
:10013000E453C63AE651997696E8E6C28426EB89FE
:100140008C9B62ED407C6FFCEFBC9C9F40F2BAA59B
:100150006FA5F490055A2AF75C936B6CF9676DC133
:100160001BFCE0E40D47FEF520E6B500D0ED902E37
:100170000300943577050080841E080000204E0A95
:10018000000000C80C333333330F986E12831141D3
:10019000EF8D2114893BE65516CFFEE6DB18D1849E
:1001A0004B381BF77C1D901DA4BBE42420328472C5
:1001B0005E228100C9F124ECA1E53D2714015E0413
:1001C000090631084C08A808E70C3C11B011881545
:1001D00031183C1811241FBECFEFD8E0DEBFCDBFD1
:1001E00012E0A0E0B1E0E6ECFEE302C005900D9263
:1001F000AA3DB107D9F724E0AAEDB2E001C01D92F3
:10020000AA30B207E1F710E0CAEED0E004C02197AF
:10021000FE010E945B1FCE3DD107C9F70E94EE038D
:100220000C9467180C9400000F9300E020E040E06D
:1002300060E082EF92E00E94470460E570E08CEE9F
:1002400092E00E94B40B26E046E165E08AED92E080
:100250000F910C94051340E855E260E070E087E0F0
:1002600093E00E94810560910001709101018091ED
:100270000201909103010E9466158AED92E00E94AE
:1002800026138CEE92E00C94700B4F925F926F925B
:100290007F928F929F92AF92BF92EF92FF920F93B5
:1002A0001F93CF93DF93CDB7DEB7CD54D1090FB6EF
:1002B000F894DEBF0FBECDBF8BEE93E00E943A11E3
:1002C000833051F060910001709101018091020131
:1002D000909103010E942B156CEE72E0CE018F5BB2
:1002E0009F4F0E94760CCE018F5B9F4F0E9471063C
:1002F000882309F4A1C066E071E087E093E00E94E2
:10030000720311E0CE018F5B9F4F0E940D0888237E
:1003100009F457C0CE018F5B9F4F0E949706892B2F
:1003200089F3CE018F5B9F4F0E94A206082F682F92
:1003300087E093E00E94C0040A30F1F5112309F32D
:1003400060E08AED92E00E94E4142B013C0140E061
:1003500060E08AED92E00E9483144B015C01A301EE
:100360009201C301B2010E94191A811108C0A501AE
:100370009401C501B4010E94191A8823A1F167E113
:1003800071E0CE018F5B9F4F0E94720367E271E0C4
:10039000CE018F5B9F4F0E94720366E471E0CE0135
:1003A0008F5B9F4F0E94720368E571E0CE018F5B07
:1003B0009F4F0E94720305C00D3009F4A3CF10E0D7
:1003C000A1CF68EE73E080E090E00E94AD02CE0124
:1003D0008F5B9F4F0E94CB0767EA71E087E093E055
:1003E0000E94720329C07E0181E2E80EF11C8701A0
:1003F00022E048E0C301B2010E944718CE010196F5
:100400003C018C0122E048E0C501B4010E9447187C
:100410007F926F92FF92EF928BEB91E09F938F937D
:1004200088E591E09F938F930E946A180FB6F89425
:10043000DEBF0FBECDBFA3CFC35BDF4F0FB6F894B7
:10044000DEBF0FBECDBFDF91CF911F910F91FF9007
:10045000EF90BF90AF909F908F907F906F905F9044
:100460004F9008951F920F920FB60F9211242F9361
:100470003F938F939F93AF93BF938091F902909195
:10048000FA02A091FB02B091FC023091F80223E045
:10049000230F2D3720F40196A11DB11D05C026E8BC
:1004A000230F0296A11DB11D2093F8028093F9023B
:1004B0009093FA02A093FB02B093FC028091FD029C
:1004C0009091FE02A091FF02B09100030196A11D40
:1004D000B11D8093FD029093FE02A093FF02B093A2
:1004E0000003BF91AF919F918F913F912F910F90FA
:1004F0000FBE0F901F9018952FB7F8946091F902D6
:100500007091FA028091FB029091FC022FBF089536
:100510003FB7F8948091FD029091FE02A091FF02F6
:10052000B091000326B5A89B05C02F3F19F0019696
:10053000A11DB11D3FBFBA2FA92F982F8827820F69
:10054000911DA11DB11DBC01CD0142E0660F771FB9
:10055000881F991F4A95D1F70895CF92DF92EF92A5
:10056000FF92CF93DF936B017C010E948802EB0125
:10057000C114D104E104F10479F00E9488026C1BDB
:100580007D0B683E7340A0F381E0C81AD108E108F2
:10059000F108C851DC4FECCFDF91CF91FF90EF9085
:1005A000DF90CF900895019739F0880F991F880F39
:1005B000991F02970197F1F70895789484B58260A6
:1005C00084BD84B5816084BD85B5826085BD85B5F7
:1005D000816085BDEEE6F0E0808181608083E1E8A6
:1005E000F0E01082808182608083808181608083DE
:1005F000E0E8F0E0808181608083E1EBF0E08081E1
:1006000084608083E0EBF0E0808181608083EAE7B2
:10061000F0E080818460808380818260808380813B
:10062000816080838081806880831092C1000895FA
:10063000CF92DF92EF92FF920F931F93CF93DF93AE
:100640006C01EB017B01E40EF51E00E010E0CE151D
:10065000DF0561F06991D601ED91FC910190F08187
:10066000E02DC6010995080F191FF1CFC801DF91D0
:10067000CF911F910F91FF90EF90DF90CF90089551
:100680006115710579F0FB0101900020E9F73197C0
:10069000AF01461B570BDC01ED91FC910280F38109
:1006A000E02D099480E090E008950C944003DC0173
:1006B000ED91FC910190F081E02D09940F931F932F
:1006C000CF93DF93EC016DE00E9457038C016AE049
:1006D000CE010E945703800F911FDF91CF911F9190
:1006E0000F9108950F931F93CF93DF93EC010E9416
:1006F00040038C01CE010E945E03800F911FDF91A9
:10070000CF911F910F9108958F929F92AF92BF92B8
:10071000CF92DF92EF92FF920F931F93CF93DF93CD
:10072000CDB7DEB7A1970FB6F894DEBF0FBECDBF31
:100730006C01142FE52FCB01022F19A2223008F4EF
:100740000AE07E0121E2E20EF11C802E912CA12C08
:10075000B12C612F7E2FA50194010E94021F029FE0
:100760001019112481E0E81AF1081A3014F4105D10
:1007700001C0195CF7011083122FE32FCA01232B4C
:10078000242B252B31F7B701C6010E944003A19607
:100790000FB6F894DEBF0FBECDBFDF91CF911F9192
:1007A0000F91FF90EF90DF90CF90BF90AF909F9010
:1007B0008F9008952115310541F4DC01ED91FC91F4
:1007C0000190F081E02D642F09940C9484039A0128
:1007D000462F50E060E070E00C94DA030E94DD02E6
:1007E0000E942B01CDE3D5E00E9445012097E1F363
:1007F0000E943D05F9CF8F929F92AF92BF92CF9208
:10080000DF92EF92FF920F931F93CF93DF937C01C0
:100810008B016C0182E0C80ED11C4701E5E08E0E11
:10082000911CC0E0D0E0F60161916F014AE050E018
:10083000C8010E94E7035C016EE2C8010E945703F1
:100840008A0D9B1DC80FD91FC814D90461F74AE04F
:1008500050E0F7016581C8010E94E7038C0F9D1FDE
:10086000DF91CF911F910F91FF90EF90DF90CF908C
:10087000BF90AF909F908F9008952DE132E0FC01E2
:1008800031832083128213821482158208950F937C
:10089000FC018DE192E09183808362834383248312
:1008A00005830F910895FB0140815181628173811D
:1008B000FC0142835383648375830895E1E0F3E090
:1008C0008DE192E0918380831282138214821582DB
:1008D0000895FC0124853585F901E05CFF4F808196
:1008E0009181329620813181821B930B8F739927DE
:1008F0000895DC011C96ED91FC911D97DF01A05C31
:10090000BF4F2D913C91119712968D919C9111970B
:100910002817390739F08D919C91E80FF91F8081D4
:1009200090E008958FEF9FEF0895FC01A485B585B1
:10093000FD01E05CFF4F2081318132968081918101
:100940002817390779F080819181A80FB91F8C9100
:10095000208131812F5F3F4F2F73332731832083D5
:1009600090E008958FEF9FEF0895FC0181A1882307
:1009700029F0A489B5898C9186FFFBCF11A2089537
:100980000F931F93CF93DF93FC01A685B7858D014D
:10099000005C1F4FE8018881998101968F73992728
:1009A000AD014E5B5F4FEA012881398182179307C1
:1009B000D1F3E80128813981A20FB31F6C93A6857A
:1009C000B785A05CBF4F11969C938E93A689B7897B
:1009D0002C9181E090E0078C02C0880F991F0A9447
:1009E000E2F7822B8C9381E081A30488F589E02DC6
:1009F00080818064808381E090E0DF91CF911F91BE
:100A00000F91089508951F920F920FB60F9211241F
:100A10002F934F935F938F939F93EF93FF938091C7
:100A2000C00082FD1CC02091C6008091AD03909152
:100A3000AE0301968F7399274091AF035091B00395
:100A40008417950771F0E091AD03F091AE03E3597F
:100A5000FC4F20839093AE038093AD0302C080913E
:100A6000C600FF91EF919F918F915F914F912F91D0
:100A70000F900FBE0F901F90189587E093E00E9493
:100A80006904892B11F00C94020508951F920F92AE
:100A90000FB60F9211242F933F938F939F93EF9351
:100AA000FF932091690330916A0380916B039091C9
:100AB0006C032817390731F48091C1008F7D809332
:100AC000C10014C0E0916B03F0916C03E75DFC4F33
:100AD000208180916B0390916C0301968F7399270D
:100AE00090936C0380936B032093C600FF91EF916A
:100AF0009F918F913F912F910F900FBE0F901F905C
:100B00001895CF92DF92EF92FF920F931F93CF939E
:100B1000DF93EC016A017B014115514E61057105BE
:100B200009F1EC89FD8981E090E008A002C0880FFE
:100B3000991F0A94E2F7808360E079E08DE390E00A
:100B4000A70196010E94021F89019A010150110913
:100B500021093109369527951795079598010115B3
:100B60001041A8F0EC89FD89108260E874E88EE1FC
:100B700090E0A70196010E94021FDA01C9010197C6
:100B8000A109B109B695A795979587959C01E88924
:100B9000F9893083EA89FB89208319A2EE89FF89CC
:100BA000408181E090E09C010C8C02C0220F331F39
:100BB0000A94E2F7242B2083EE89FF8940819C016F
:100BC0000D8C02C0220F331F0A94E2F7242B2083DE
:100BD000EE89FF8940819C010E8C02C0220F331FD9
:100BE0000A94E2F7242B2083EE89FF8920810F8C61
:100BF00002C0880F991F0A94E2F7809582238083B0
:100C0000DF91CF911F910F91FF90EF90DF90CF90E8
:100C10000895E7E0F3E01382128288EE93E0A0E00B
:100C2000B0E084839583A683B78383E292E09183C7
:100C300080838DE693E09587848789E293E09787A8
:100C4000868785EC90E0918B808B84EC90E0938B91
:100C5000828B80EC90E0958B848B81EC90E0978B7D
:100C6000868B82EC90E0918F808F86EC90E0938F62
:100C7000828F84E0848F83E0858F87E0868F85E094
:100C8000878F81E080A30895CF93DF931F92CDB724
:100C9000DEB76983DC01ED91FC910280F381E02DE8
:100CA00041E050E0BE016F5F7F4F09950F90DF91EB
:100CB000CF910895CF93DF93EC01E881F98104800F
:100CC000F581E02DCE010995892B41F0E881F9816C
:100CD0000680F781E02DCE010995EFCFDF91CF910E
:100CE000089521E0FC018485843009F420E0822FFE
:100CF00008950F931F93CF93DF938C01D42FC52FAB
:100D0000FC018485843041F481E090E0F801938314
:100D1000828380E090E006C00E94F70F892BA1F348
:100D20008D2F9C2FDF91CF911F910F910895FC0182
:100D30006485643021F089ED93E00C94CB0D80E064
:100D400090E00895CF93DF931F92CDB7DEB741E0D7
:100D500050E0BE016F5F7F4FFC0184850E94481008
:100D6000181619061CF4898190E002C08FEF9FEFDE
:100D70000F90DF91CF910895FC0184850C94481069
:100D80000F931F93CF93DF931F92CDB7DEB78C01E4
:100D9000DC01ED91FC910480F581E02D0995892B12
:100DA00051F0BE016F5F7F4FF80184850E948E1065
:100DB000898190E002C08FEF9FEF0F90DF91CF917C
:100DC0001F910F910895CF92DF92EF92FF920F93B0
:100DD0001F93CF93DF93CDB7DEB7AF970FB6F894DD
:100DE000DEBF0FBECDBF8C016B017A01CE01019633
:100DF0000E943D04CE0109960E94BE17CE018A963C
:100E00000E943D0467EB73E0CE0184960E943C088B
:100E1000BE016C5D7F4FCE0101960E945A08AE0163
:100E2000465D5F4FB601CE0101960E94CC0A81302B
:100E30009105C1F4D801ED91FC910484F585E02D74
:100E40008DE192E09DA38CA38CA59DA5AEA5BFA529
:100E50008EA39FA3A8A7B9A7A701BE016C5D7F4F72
:100E6000C8010995AF960FB6F894DEBF0FBECDBF8F
:100E7000DF91CF911F910F91FF90EF90DF90CF9076
:100E80000895FC011382128288EE93E0A0E0B0E0A6
:100E900084839583A683B78383E392E091838083E1
:100EA00064870895FC018485843039F090E0982FA0
:100EB00088278D5F9B4F0C94570D80E00895AF926B
:100EC000BF92CF92DF92EF92FF920F931F93CF9337
:100ED000DF93FC012485243009F03EC06A018B01B8
:100EE000EC0183E0A82E84E0B82EE12CF12CC501A2
:100EF0000E94570D811102C0EC860BC08B7F883198
:100F0000D9F3FFEFEF1AFF0AB394E4E0EE16F10411
:100F100071F78C85843001F1209104013091050135
:100F20002F5F3F4F11F420E034E030930501209310
:100F30000401409104015091050120E061E00E940C
:100F40006D0FB8016E5F7F4FA6018C850E94B90FAF
:100F5000811105C084E08C8780E090E011C0CE0153
:100F60000E945207873151F061E070E080E090E02C
:100F70000E94AD02CE010E945207EACF81E090E0CC
:100F8000DF91CF911F910F91FF90EF90DF90CF9065
:100F9000BF90AF900895CF92DF92EF92FF92CF93E0
:100FA000DF93EC018C85843089F10E94F00F0E9460
:100FB0007C026B017C01CE010E9452078823A1F0C4
:100FC0000E947C02DC01CB018C199D09AE09BF098E
:100FD000883E9340A105B10538F461E070E080E0FF
:100FE00090E00E94AD02E7CFCE010E945207882315
:100FF00019F08C850E945F0FEC85F0E0EE0FFF1F6B
:10100000E154FC4F1182108284E08C87DF91CF91F4
:10101000FF90EF90DF90CF900895CF93DF93FC0186
:1010200024852430D1F0EC010E945207843181F0F4
:10103000882371F0883161F08C3161F4E881F981A5
:101040000480F581E02DCE01099521E0892B19F46A
:1010500020E001C021E0822F01C080E0DF91CF912C
:1010600008950F9300E020E040E060E081EB93E022
:101070000E9447040F9108952DE132E0FC01318375
:101080002083FB014281538164817581FC0142838D
:1010900053836483758308950F9300E020E040E05C
:1010A00060E087EC93E00E94470487EB93E00F91A8
:1010B0000C943D04FB014281538164817581FC01E4
:1010C0004283538364837583178216820895CF9376
:1010D000DF93DA01FB01EB0189918111FDCF20E063
:1010E00030E080E090E04AE051915523F1F0843007
:1010F00091054CF55E3261F42F3F310509F01CF586
:10110000ED01C80FD91F2A83019620E030E0ECCF13
:10111000429FB001439F700D1124252F550F330BB3
:1011200020533109260F371FDFCF2F3F310509F03C
:1011300054F4843091053CF4FD01E80FF91F22833B
:1011400081E090E002C080E090E0DF91CF910895CF
:101150000F9300E020E040E060E08DEC93E00E941F
:1011600047040F9108958F929F92AF92BF92CF92B2
:10117000DF92EF92FF920F931F93CF93DF9300D0F4
:101180001F92CDB7DEB77C016B010E947C02F70194
:10119000778366838701085F1F4FB7016A5F7F4FC0
:1011A00042E050E0C8010E94B91681E090E09A83C5
:1011B000898342E050E0BE016F5F7F4FC8010E940B
:1011C000B91680E091E09A83898342E050E0BE0145
:1011D0006F5F7F4FC8010E94B9161A82198242E0E0
:1011E00050E0BE016F5F7F4FC8010E94B91642E018
:1011F00050E0BE016F5F7F4FC8010E94B91642E008
:1012000050E0BE016F5F7F4FC8010E94B9165601C2
:10121000F5018081882329F1C6017C01FC01208130
:101220000196211116C0570147018C189D0818140A
:10123000190494F48B8241E050E0BE016D5F7F4F52
:10124000C8010E94B916A401B601C8010E94B916CE
:1012500003C02E3211F7E7CF6701FFEFCF1ADF0A85
:10126000D7CF1B8241E050E0BE016D5F7F4FC801C8
:101270000E94B916E12CFF24F394FA82E98242E03D
:1012800050E0BE016F5F7F4FC8010E94B916FA821D
:10129000E98242E050E0BE016F5F7F4FC8010E94CB
:1012A000B91681E090E00F900F900F90DF91CF91F1
:1012B0001F910F91FF90EF90DF90CF90BF90AF9074
:1012C0009F908F9008954F925F926F927F928F922E
:1012D0009F92AF92BF92CF92DF92EF92FF920F93C5
:1012E0001F93CF93DF93CDB7DEB765970FB6F89412
:1012F000DEBF0FBECDBF6C015B017A010E947C0294
:101300002B013C018601085F1F4F4501A12CB12C28
:10131000C8010E942E1718161906A4F00E947C021C
:10132000DC01CB0184199509A609B709881699062D
:10133000AA06BB06D0F062E370E080E090E00E9475
:10134000AD02E6CFF6014281538164817581818DC2
:10135000928DA38DB48D481759076A077B0741F416
:10136000858D968DC59721F406C02FEF3FEFFCC009
:101370002EEF3FEFF9C0C8010E946C160C970CF4D9
:10138000F1C04CE050E0BE016F5F7F4FC8010E948A
:10139000F6162B813C813227232732273A8B298B63
:1013A000F6014681578189819A814817590711F4BE
:1013B00037FD06C0C8010E9486162CEF3FEFD4C04F
:1013C0002F703270232B31F0C8010E9486162BEF4C
:1013D0003FEFCAC0CF80D884DC24CD24DC24C114E4
:1013E000D10431F4C8010E9486162AEF3FEFBCC039
:1013F000A12CB12C8D819E81982789279827A8162A
:10140000B90640F541E050E0BE01635F7F4FC8017F
:101410000E94F6168D85811113C08D858111F2CF42
:10142000C8010E94CD16C8010E94CD16C8010E94B5
:10143000CD16C8010E94CD16FFEFAF1ABF0ADACF52
:101440008D859FEF980F9D87882339F3C8010E94EF
:10145000CD16F6CFA12CB12C41E050E0BE016D5E5F
:101460007F4FC8010E94F6168B89982F907C61F4FB
:10147000882371F08B899FEF980F9B8B882341F015
:10148000C8010E94CD16F6CFC8010E94CD161B8A56
:101490008B898111E1CF42E050E0BE01615F7F4F57
:1014A000C8010E94F61642E050E0BE01635F7F4F24
:1014B000C8010E94F616C8010E94CD16C8010E94FC
:1014C000CD16C8010E94CD16C8010E94CD1642E07B
:1014D00050E0BE016F5E7F4FC8010E94F6168F85F7
:1014E00098898115914001F52D853E853227232766
:1014F000322721303105C1F489899A8981159440B8
:1015000031F0C8010E94861627EF3FEF2DC0B701CA
:101510006E5F7F4F44E050E0C8012C8B3D8B0E94F2
:10152000F6162C893D8920C0812C912C89899A89B5
:101530009827892798278816990638F4C8010E94A9
:10154000CD168FEF881A980AF1CFEFEFAE1ABE0AC8
:10155000AC14BD0409F080CFC8010E94861626EFA6
:101560003FEF02C02DEF3FEFC90165960FB6F8942B
:10157000DEBF0FBECDBFDF91CF911F910F91FF90C6
:10158000EF90DF90CF90BF90AF909F908F907F9023
:101590006F905F904F9008958F929F92AF92BF92FD
:1015A000CF92DF92EF92FF920F931F93CF93DF932F
:1015B00000D000D000D0CDB7DEB77C014B015A017E
:1015C0000E9467088C01892B09F05BC0F7014281FA
:1015D0005381648175818091CF039091D003A09154
:1015E000D103B091D203481759076A077B0709F462
:1015F0004BC00E947C026701F8E0CF0ED11C6F70D7
:1016000077277C5FC6010E948117813009F03EC0B8
:101610008DE192E09A838983F70182819381A4818D
:10162000B5818B839C83AD83BE8345E350E0BE01CF
:101630006F5F7F4FC6010E94AD16892B19F400E041
:1016400010E01BC0B401C7010E94B308892BB9F395
:10165000C6010E94B516892B91F383E0882E912C48
:10166000A50168E873E1C7010E9463098C01F1E0FC
:101670008F1A910811F0019699F3C6010E949816ED
:1016800005C001E010E002C00EEF1FEFC801269672
:101690000FB6F894DEBF0FBECDBFDF91CF911F9183
:1016A0000F91FF90EF90DF90CF90BF90AF909F9001
:1016B0008F900895CF93DF931F92CDB7DEB76983E4
:1016C000DC01ED91FC910280F381E02D41E050E0DE
:1016D000BE016F5F7F4F09950F90DF91CF91089505
:1016E000EF92FF920F931F93CF93DF93CDB7DEB7A7
:1016F0002D970FB6F894DEBF0FBECDBF7C0100E082
:1017000010E0602FCE0101960E944107CE010196A4
:101710000E945207811116C0F7014481558120E0D3
:1017200061E0802F0E946D0F802F0E94A50FF701AE
:1017300084819581000F111FF801E154FC4F9183C2
:10174000808305C00F5F1F4F04301105D1F62D9621
:101750000FB6F894DEBF0FBECDBFDF91CF911F91C2
:101760000F91FF90EF900895FC01138212828FE495
:1017700092E091838083758364830895AF92BF92D2
:10178000CF92DF92EF92FF921F93CF93DF93CDB76B
:10179000DEB72D970FB6F894DEBF0FBECDBF7C012C
:1017A0009FEBA92E93E0B92E10E0C12CD12C612F14
:1017B000CE0101960E944107D5012D913D915D0119
:1017C000F7018481958128173907B1F4CE0101967C
:1017D0000E945207843169F0CE0101960E9452079F
:1017E0008C3151F4CE0101960E949706892B91F01D
:1017F00003C0CC24C394D12C1F5F1430C1F6CD2874
:1018000071F4D701ED91FC910480F581E02DC701C1
:10181000099505C0CE0101960E94CB07EDCF2D960C
:101820000FB6F894DEBF0FBECDBFDF91CF911F91F1
:10183000FF90EF90DF90CF90BF90AF9008956F92A0
:101840007F928F929F92AF92BF92CF92DF92EF9250
:10185000FF921F93CF93DF93CDB7DEB72D970FB6CF
:10186000F894DEBF0FBECDBF5C014B013A010E9470
:10187000BE0B8FEBC82E83E0D82E10E0E12CF12CAC
:10188000612FCE0101960E944107F601219131910D
:101890006F01F501848195812817390731F4CE0154
:1018A00001960E9452078731C1F01F5F143041F743
:1018B000C7012D960FB6F894DEBF0FBECDBFDF91E6
:1018C000CF911F91FF90EF90DF90CF90BF90AF909E
:1018D0009F908F907F906F900895A301B401CE01E7
:1018E00001960E947906E80EF91EDFCFAF92BF92F3
:1018F000CF92DF92FF920F931F93CF93DF93CDB7D9
:10190000DEB72D970FB6F894DEBF0FBECDBF8C01AA
:101910005B01CB010E94BE0B8FEBC82E83E0D82E5B
:10192000F12C6F2DCE0101960E944107F601219105
:1019300031916F01F501848195812817390761F490
:10194000CE0101960E945207873179F0CE010196AF
:101950000E9452078C3149F0F394F4E0FF12E1CF7A
:1019600064E0C8010E94410721C0CE0101960E9497
:101970009706892B89F38B819C81F801938382835D
:101980008D819E81AF81B88584839583A683B7833B
:1019900089859A85AB85BC8580879187A287B38727
:1019A00083E392E0918380838D858487C8012D969F
:1019B0000FB6F894DEBF0FBECDBFDF91CF911F9160
:1019C0000F91FF90DF90CF90BF90AF9008950F934D
:1019D00000E020E040E060E083ED93E00E944704F7
:1019E0000F9108958EBD0DB407FEFDCF8EB50895FD
:1019F0002A9808952A9A08951F93CF93DF9300D0D1
:101A0000CDB7DEB7182F6A8399830E94F80C80EF58
:101A10000E94F20C9981892F0E94F20C812F0E9462
:101A2000F20C6A81862F0E94F20C0E94FA0C81E06F
:101A30000F900F90DF91CF911F9108959B0190E03F
:101A40000496982F8827642F820F931F0C94FC0C08
:101A5000CF92DF92EF92FF920F931F93CF93DF937A
:101A6000EC017A018B016C01C40ED51ECC15DD058D
:101A7000A1F00E94F80C80EF0E94F20C8D2F0E94C2
:101A8000F20C8C2F0E94F20C2196F80181918F01AB
:101A90000E94F20C0E94FA0CE9CFC701DF91CF91AE
:101AA0001F910F91FF90EF90DF90CF9008951F93BB
:101AB000CF93DF931F92CDB7DEB7182F99830E9483
:101AC000F80C8FE00E94F20C9981892F0E94F20C91
:101AD000812F0E94F20C80E00E94F20C89830E9408
:101AE000FA0C89810F90DF91CF911F91089590E0BA
:101AF0000496982F8827860F971F0C94570D1F93D5
:101B0000CF93DF93182F60E270E00E94770DC82F0B
:101B1000D0E061E270E0812F0E94770DDC2FCC27AE
:101B20009E01282BC901DF91CF911F910895FF924B
:101B30000F931F93CF93DF93F62EC0E0D0E08F2D4D
:101B40000E947F0D8C01892B21F08F2D0E947F0D2B
:101B5000EC01C017D10799F7CE01DF91CF911F910A
:101B60000F91FF9008951F93CF93DF93182F66E294
:101B700070E00E94770DC82FD0E067E270E0812FFF
:101B80000E94770DDC2FCC279E01282BC901DF9105
:101B9000CF911F910895FF920F931F93CF93DF93DF
:101BA000F62EC0E0D0E08F2D0E94B30D8C01892B62
:101BB00021F08F2D0E94B30DEC01C017D10799F7CA
:101BC000CE01DF91CF911F910F91FF9008956F92F9
:101BD0007F928F929F92AF92BF92CF92DF92EF92BD
:101BE000FF920F931F93CF93DF931F92CDB7DEB772
:101BF000882E962E6A01590164E270E0892D99833E
:101C00000E94770DE82EF12C65E270E0892D0E948C
:101C1000770DFE2CEE24E82A37016C0C7D1CA30105
:101C20005770E82C9981F92EE90CF11CE90CF11C94
:101C3000F70180819181840F951F9A01200F311F38
:101C40002130384098F060E078E06B01C41AD50A82
:101C5000A601B5010E94280DA8014C195D09B50126
:101C60006C0D7D1DF7018081918102C0A801B50135
:101C70000E94280D060D171D412F64E270E0892D8A
:101C80000E941E0D402F65E270E0892D0F90DF91BC
:101C9000CF911F910F91FF90EF90DF90CF90BF9069
:101CA000AF909F908F907F906F900C941E0D0F932C
:101CB0001F9389019A0140E050E00E94E70D1F91B7
:101CC0000F910895CF92DF92EF92FF920F931F939F
:101CD000CF93DF93EC017A018B016C01C40ED51E0A
:101CE000CC15DD05A9F00E94F80C8FE00E94F20CE3
:101CF0008D2F0E94F20C8C2F0E94F20C219680E016
:101D00000E94F20CF80181938F010E94FA0CE8CF37
:101D1000C701DF91CF911F910F91FF90EF90DF905E
:101D2000CF900895CF92DF92EF92FF920F931F937F
:101D3000CF93DF93690157707C01E60EF11CE60E2C
:101D4000F11CF70180859185840F951F9A01200F62
:101D5000311F2130384098F0E0E0F8E0EF01C41B7B
:101D6000D50BAE01B6010E94620EA8014C1B5D0BA3
:101D7000B6016C0F7D1FF7018085918502C0A80117
:101D8000B601DF91CF911F910F91FF90EF90DF90FF
:101D9000CF900C94620E8F929F92AF92BF92CF928F
:101DA000DF92EF92FF920F931F93CF93DF936C011B
:101DB000962E5A017901802E68E270E0892D0E94EA
:101DC000770DC82FD0E069E270E0892D0E94770D71
:101DD000DC2FCC27C82B87019501AE01692DC601E8
:101DE0000E94920E81101AC0CE0DDF1D4D2F68E2A9
:101DF00070E0892D0E941E0D4C2F69E270E0892D44
:101E0000DF91CF911F910F91FF90EF90DF90CF90D6
:101E1000BF90AF909F908F900C941E0DDF91CF914B
:101E20001F910F91FF90EF90DF90CF90BF90AF90F8
:101E30009F908F900895CF93C62F61E070E08C2F14
:101E40000E941E0D61E070E08C2F0E94770D8111C1
:101E5000F9CFCF91089590E0982F882744E050E083
:101E6000845F9B4F0C94280D62E070E00C94770D1A
:101E7000CF93DF93C82FD62F472F64E070E00E94E6
:101E80001E0D4D2F65E070E08C2FDF91CF910C94EB
:101E90001E0D462F62E070E00C941E0DCF93DF9371
:101EA000C82FD62F472F60E170E00E941E0D4D2FE6
:101EB00061E170E08C2FDF91CF910C941E0DCF93D8
:101EC000C82F40E150E0682F89ED93E00E941B0F7E
:101ED0006FEF8C2FCF910C94490FFF920F931F93AC
:101EE000CF93DF939FEF960F953040F5D22F8A0165
:101EF000F62EC82F0E945F0F4F2D4D2B60E070E033
:101F00008C2F0E941E0D0115110511F0B8010AC099
:101F10006091E9037091EA036F5F7F4F7093EA036A
:101F20006093E9038C2F0E94380F41E050E06C2F42
:101F300089ED93E00E941B0F81E001C080E0DF91FA
:101F4000CF911F910F91FF900895CF93C82F63E019
:101F500070E00E94770D833149F442E050E06C2F2D
:101F600089ED93E00E941B0F81E001C080E0CF91DA
:101F700008950F931F93CF93FB0190819F3F51F4DE
:101F800091819F3F91F492819F3F79F493819F3F8C
:101F900061F420C0911109C09181911106C0928114
:101FA000911103C093819923B1F04115510591F02E
:101FB0008A01BF01C82F0E942B0FB8018C2F0E94ED
:101FC0004E0F44E050E06C2F89ED93E00E941B0F10
:101FD00091E001C090E0892FCF911F910F9108955A
:101FE00048E050E0682F89ED93E00C941B0FCF92EE
:101FF000DF92EF92FF920F931F93CF93C82F7B0135
:102000008A014130584010F000E018E06C2F89ED53
:1020100093E00E94970D6C0163E070E08C2F0E94AA
:10202000770D873111F08C3121F4C016D10670F391
:1020300002C000E010E09801A7016C2F89ED93E049
:102040000E94570E40E250E06C2F89ED93E00E9411
:102050001B0F8C2F0E94340F84FD0DC063E070E0D5
:102060008C2F0E94770D8111F4CF8C2F0E945F0F6F
:1020700080E090E005C060E18C2F0E94490FC8010C
:10208000CF911F910F91FF90EF90DF90CF90089527
:10209000CF92DF92EF92FF920F931F93CF93DF9334
:1020A000182F6B017A01682F89ED93E00E94CB0D08
:1020B000EC01009799F463E070E0812F0E94770DA6
:1020C000843111F1882301F1C1E0D0E08C3111F4A9
:1020D000C0E0D0E0D195C195D10916C0E816F90647
:1020E0000CF4E7011C161D067CF400E09E01A6011D
:1020F000612F89ED93E00E94CB0E40E450E0612F08
:1021000089ED93E00E941B0FCE01DF91CF911F91CB
:102110000F91FF90EF90DF90CF9008950F93AB0158
:1021200001E021E030E0682F89ED93E00E94CB0EC2
:1021300081E090E00F910895AF92BF92CF92DF922D
:10214000FF920F931F93CF93DF93F82E6B015A01E9
:10215000E901682F89ED93E00E94970D8C179D0788
:1021600030F46F2D89ED93E00E94970DEC018E0104
:102170009501A6016F2D89ED93E00E94E70DCE0138
:10218000DF91CF911F910F91FF90DF90CF90BF9083
:10219000AF9008950F931F93CF93FB0190819111FE
:1021A00009C09181911106C09281911103C0938160
:1021B000992379F04115510561F08A01BF01C82FBB
:1021C0000E942B0FB8018C2F0E944E0F81E090E0EF
:1021D00002C080E090E0CF911F910F910895CF93BE
:1021E000C82F40E250E0682F89ED93E00E941B0F5A
:1021F0008C2F0E94340F84FD0CC08C2F0E94340F52
:1022000083FFF6CF68E18C2F0E94490F80E090E0B9
:1022100006C060E18C2F0E94490F81E090E0CF91D1
:102220000895CF93CB01FA0101900020E9F731978F
:102230009F01241B350BFB0101900020E9F731972A
:10224000BF01681B790B0E944A118F3F79F0CAE0E9
:1022500068E873E180E090E00E94AD020E948C117A
:10226000982F9D7F21F4C15099F701C084E090E040
:10227000CF9108950C948C110F9300E020E040E082
:1022800060E08CEE93E00E9447040F910C9448119B
:102290000C94BB11DF92EF92FF920F931F93CF9399
:1022A000DF9300D01F92CDB7DEB77C01D62E8A0116
:1022B0002B830E940C120E94EE1162E081E10E94C9
:1022C000E91240E06D2DC7010E94611241E02B81AF
:1022D000622FC8010E9461120E940C121A82198298
:1022E0009E012F5F3F4FAE014E5F5F4F61E081E186
:1022F0000E949D12892B11F48FEF8A830E94F211A4
:102300008A810F900F900F90DF91CF911F910F91C5
:10231000FF90EF90DF900895CF93DF9300D0CDB77B
:10232000DEB70E940C120E94EE1160E080E20E9473
:10233000E9120E940C128FEF8A8319829E012F5F8F
:102340003F4FAE014E5F5F4F61E080E20E949D1201
:102350000E94F2118A810F900F90DF91CF91089522
:102360000F9300E020E040E060E082EF93E00E9405
:1023700047040F91089561E08DE00E94BC1561E073
:102380008BE00E94BC1561E08AE00E94BC1561E010
:102390008AE00E94BC1560E087E00E94BC1561E005
:1023A00089E00E94BC1560E08DE00E94F81560E0B5
:1023B0008BE00E94F81561E08AE00E94F81561E068
:1023C0008AE00E94F81560E089E00E94F8158CB55B
:1023D00080618CBD8CB580648CBD089560E08AE01E
:1023E0000C94F81561E08AE00C94F815CF93DF9314
:1023F0001F92CDB7DEB7898389818EBD0DB407FEEC
:10240000FDCF8EB52AE030E0000021503109E1F720
:102410000F90DF91CF91089587E00E942816892BB5
:10242000D9F70895CF93DF93EC018FEF0E94F61157
:1024300088838AE090E000000197E9F7DF91CF916F
:1024400008951F93CF93DF93182FEB01CB010E94C8
:10245000121221E030E08881811711F020E030E095
:10246000C901DF91CF911F910895CF93DF931F9200
:10247000CDB7DEB71982CE0101960E941212898172
:102480000F90DF91CF9108950F931F93CF93C82F93
:1024900009EE13E00E9435128F3E39F00150110908
:1024A00039F08C13F7CF8C2F03C08FEF9FEF05C04F
:1024B00021E090E08C1320E0822FCF911F910F91AB
:1024C0000895DF92EF92FF920F931F93CF93DF93C4
:1024D0007C01C62FD42E862F0E94F6118701D0E0F2
:1024E000C8018E199F098C179D0734F4F80181915A
:1024F0008F010E94F611F4CFF1E0DF120AC08EEED8
:10250000DF91CF911F910F91FF90EF90DF900C948E
:10251000F611DF91CF911F910F91FF90EF90DF9017
:102520000895CF93DF93EC018FEF0E94F61120976F
:1025300009F08883DF91CF910895CF92DF92EF92D7
:10254000FF920F931F93CF93DF931F92CDB7DEB708
:10255000182F062F6A017901198280EE0E94441219
:10256000892B19F480E090E02AC0CE0101960E94E8
:102570001212106889818113F5CFCE0101960E9455
:10258000121289818013EECFC7010E94911200E0E0
:1025900010E0F701608170E00617170744F4C601E8
:1025A000800F911F0E9412120F5F1F4FF2CFBE01CA
:1025B0006F5F7F4F8EEE0E94211281E090E00F90BE
:1025C000DF91CF911F910F91FF90EF90DF90CF900F
:1025D0000895CF93DF93D82FC62F80EE0E94F61177
:1025E0008AE090E00E94D3028D2F8F770E94F6112F
:1025F0008C2F0E94F611C11105C08EEEDF91CF9194
:102600000C94F611DF91CF910895DC0115966C932F
:10261000159716964C93169770E0FB01E458FF4F00
:10262000E4911796EC931797FB01E057FF4F6491E5
:1026300018966C93189740E85EE360E070E01D9692
:102640004D935D936D937C9350970895CF93DF9353
:10265000EC0162E08D810E94BC1580E398EFAFEF42
:10266000BFEF89879A87AB87BC87DF91CF910895A9
:102670008F929F92AF92BF92CF92DF92EF92FF9292
:102680000F931F93CF93DC011796CC911797662376
:1026900011F08C2F01C080E018962C91189730E033
:1026A000220F331F2C553F4F40E050E0BA01F90193
:1026B00005911491F80190819C23981315C06A012B
:1026C0007B019FEFC91AD90AE90AF90A1D968D9074
:1026D0009D90AD90BC905097481559056A057B05B3
:1026E00038F4B701A601E3CF342F252FCB0104C066
:1026F00030E020E080E090E0632F722FCF911F91B7
:102700000F91FF90EF90DF90CF90BF90AF909F9090
:102710008F9008958F929F92AF92BF92CF92DF9247
:10272000EF92FF920F931F93CF93DF93CDB7DEB756
:10273000C054D1400FB6F894DEBF0FBECDBF8C01A0
:10274000F62E0E947C02F11016C0F801C184D284DA
:10275000E384F4849B01AC012C193D094E095F0907
:1027600069017A0130EDC31637E0D306E104F104C4
:1027700010F48189B4C0F8016187728783879487D8
:102780001482138212821182108261E085810E947C
:10279000F8156AEF70E080E090E00E94AD0261E021
:1027A000F80185810E94BC1560E0F80185810E94D6
:1027B000F81564E170E080E090E00E94AD02F894CA
:1027C00061E0F80185810E94F81588E290E00E949E
:1027D000D30262E0F80185810E94BC158AE090E096
:1027E0000E94D30260E0C8010E943813672B682B57
:1027F000692B21F4F801118A789442C061E0C80184
:102800000E943813672B682B692BA1F39E012F5F61
:102810003F4F79015E013FEBA31A3EEFB30A670118
:1028200060E0C8010E943813F601608371838283DF
:10283000938361E0C8010E943813F60164837583B5
:1028400086839783F8E0CF0ED11CCA14DB0441F7CE
:10285000789420E030E0F7014081518162817381FA
:1028600084809580A680B78041155105610571056A
:1028700029F081149104A104B10421F4F801118A12
:1028800080E02DC0F90183E0F595E7958A95E1F7A1
:10289000E00FF11F8081880F481559056A057B05F7
:1028A00008F4816080832F5F3F4FF8E0EF0EF11C4A
:1028B0002832310581F6F801248130E040818181A0
:1028C00090E0840F911D4281840F911D4381840FFC
:1028D000911D99272817390789F681E0818BC05C03
:1028E000DE4F0FB6F894DEBF0FBECDBFDF91CF91A4
:1028F0001F910F91FF90EF90DF90CF90BF90AF901E
:102900009F908F900895CF92DF92EF92FF920F9356
:102910001F93CF93DF93EC01162F642F0E948A132D
:10292000882309F444C08E818B3031F008F43FC015
:102930008551823040F03BC06A8170E080E090E0D9
:102940000E94FA1825C00A81602F6F7770E080E03E
:1029500090E00E94FC1820E030E040E853E40E9440
:10296000AC196B017C018B81682F70E080E090E0F6
:102970000E94FC189B01AC01C701B6010E948E1891
:102980002DEC3CEC4CEC5DE30E94AC1907FD90583B
:10299000112389F026E636E646EE5FE30E94AC1985
:1029A00020E030E040E052E40E948E1804C060E075
:1029B00070E080EC9FE7DF91CF911F910F91FF9026
:1029C000EF90DF90CF900895CF92DF92EF92FF9239
:1029D000CF93DF93EC0160E00E948A13882381F19A
:1029E0008E818B3031F160F18551823048F56881FC
:1029F00070E080E090E00E94FA1820E030E040E8CB
:102A000053E40E94AC196B017C018981682F70E04E
:102A100080E090E00E94FC189B01AC01C701B60168
:102A20000E948E182DEC3CEC4CEC5DE30E94AC193E
:102A30000BC0688170E080E090E00E94FA1804C04A
:102A400060E070E080EC9FE7DF91CF91FF90EF9026
:102A5000DF90CF900895EF92FF920F931F93CF9343
:102A6000DF938C017B0165E572E087E093E00E94D3
:102A700072038BEE93E00E943A11C82FD0E02397A7
:102A8000C9F06AE672E087E093E00E945503B8015E
:102A900087E093E00E947203A701B8018BEE93E0F8
:102AA0000E941111EC0164EF71E080E090E00E945F
:102AB000AD02E5CF6EE872E087E093E0DF91CF9161
:102AC0001F910F91FF90EF900C9472030F931F933F
:102AD000CF93DF9300D0CDB7DEB78C018BEE93E0C0
:102AE00069837A830E943A1169817A818F3F39F430
:102AF0006EE972E087E093E00E947203FFCFC801A5
:102B00000F900F90DF91CF911F910F910C942B1587
:102B10000F9300E020E040E060E088EF93E00E9447
:102B200047040F910895833081F028F4813099F0A3
:102B30008230A1F008958630A9F08730B9F0843052
:102B4000D1F4809180008F7D03C0809180008F77C9
:102B500080938000089584B58F7702C084B58F7DFF
:102B600084BD08958091B0008F7703C08091B0003C
:102B70008F7D8093B0000895CF93DF9390E0FC01A8
:102B8000E458FF4F2491FC01E057FF4F84918823C4
:102B900061F190E0880F991FFC01E854FF4FC59147
:102BA000D491FC01E255FF4FA591B491611109C088
:102BB0009FB7F8948881209582238883EC912E23F7
:102BC0000BC0623061F49FB7F8943881822F8095F2
:102BD00083238883EC912E2B2C939FBF06C08FB745
:102BE000F894E8812E2B28838FBFDF91CF91089531
:102BF0001F93CF93DF93282F30E0F901E859FF4F5F
:102C00008491F901E458FF4FD491F901E057FF4F47
:102C1000C491CC23C9F0162F81110E949315EC2F7B
:102C2000F0E0EE0FFF1FE255FF4FA591B4918FB773
:102C3000F894111105C09C91ED2FE095E92302C095
:102C4000EC91ED2BEC938FBFDF91CF911F91089505
:102C5000CF93DF93282F30E0F901E859FF4F84919B
:102C6000F901E458FF4FD491F901E057FF4FC491A7
:102C7000CC2391F081110E949315EC2FF0E0EE0F20
:102C8000FF1FEC55FF4FA591B491EC91ED2381E02E
:102C900090E021F480E002C080E090E0DF91CF91ED
:102CA0000895DC01ED91FC91008CF18DE02D0994EB
:102CB0002DE132E0FC0131832083FB0141895289FF
:102CC00063897489FC014283538364837583089507
:102CD000FC01858996890895FC01818D928D089566
:102CE000CF93DF931F92CDB7DEB76983DC01ED91FF
:102CF000FC910280F381E02D41E050E0BE016F5F66
:102D00007F4F09950F90DF91CF910895CF93DF9377
:102D1000EC01898D9A8D892B41F0E881F98106803B
:102D2000F781E02DCE010995F4CFDF91CF91089581
:102D3000CF93DF93EC018C85843061F00E945F0FAC
:102D4000EC85F0E0EE0FFF1FE154FC4F1182108282
:102D500084E08C87DF91CF910895FC01108E178A53
:102D60006E5F7F4F84850C94CA10FC0184850C949F
:102D7000EF10CF93DF93EC019A018F89988DAB010F
:102D8000BC018C850E949C102F89388D280F391F1B
:102D9000388F2F8BDF91CF9108950F931F93CF938F
:102DA000DF931F92CDB7DEB7FC01218D328D232B2F
:102DB00061F08C0141E050E0BE016F5F7F4F848580
:102DC0000E944810181619061CF08FEF9FEF08C0DC
:102DD000F801818D928D0197928F818F898190E08A
:102DE0000F90DF91CF911F910F910895CF93DF93B3
:102DF000FC01218D328D2115310519F48FEF9FEFE4
:102E000011C0EC014217530708F0A9018C850E94FC
:102E100048101816190694F7298D3A8D281B390B7E
:102E20003A8F298FDF91CF910895CF93DF931F922F
:102E3000CDB7DEB7FC01218D328D232B49F0BE01C9
:102E40006F5F7F4F84850E948E10898190E002C061
:102E50008FEF9FEF0F90DF91CF9108950F931F9306
:102E6000CF93DF93CDB7DEB728970FB6F894DEBFC8
:102E70000FBECDBF8C01DC01ED91FC910284F38586
:102E8000E02D0995F801648589ED93E00E94CB0D52
:102E9000892B51F148E050E0BE016F5F7F4FD801B0
:102EA0001C968C910E9448109C0118161906D4F4A7
:102EB000BE016F5F7F4FC8010F960E9453048D8142
:102EC00090E0982F88272E81820F911DF801968B14
:102ED000858B2F8130E0322F22278885280F311DE6
:102EE000328F218FC90102C080E090E028960FB692
:102EF000F894DEBF0FBECDBFDF91CF911F910F9130
:102F00000895CF92DF92EF92FF920F931F93CF938A
:102F1000DF93FC012485243011F080E026C08B0172
:102F2000EC0183E0C82E84E0D82EE12CF12CC60100
:102F30000E94570D811102C0EC860AC08831E1F36E
:102F4000FFEFEF1AFF0AD394E4E0EE16F10479F7ED
:102F50008C85843011F31E870D871A8E198E20E020
:102F6000A80162E00E946D0F81E0DF91CF911F9177
:102F70000F91FF90EF90DF90CF900895FC011382A6
:102F8000128288EE93E0A0E0B0E084839583A6836C
:102F9000B7838AEB92E09183808384E08487CF01BA
:102FA0000F960C943D04CF92DF92EF92FF920F9315
:102FB0001F93CF93DF93CDB7DEB7AF970FB6F894DB
:102FC000DEBF0FBECDBF8C016B017A01CE01019631
:102FD0000E943D04CE0109960E94BE17CE018A963A
:102FE0000E943D0467EB73E0CE0184960E943C088A
:102FF000BE016C5D7F4FCE0101960E945A08AE0162
:10300000465D5F4FB601CE0101960E94CC0A813029
:103010009105C1F4D801ED91FC910088F189E02D72
:103020008DE192E09DA38CA38CA59DA5AEA5BFA527
:103030008EA39FA3A8A7B9A7A701BE016C5D7F4F70
:10304000C8010995AF960FB6F894DEBF0FBECDBF8D
:10305000DF91CF911F910F91FF90EF90DF90CF9074
:1030600008950F9300E020E040E060E08EEF93E0F1
:103070000E9447040F9108950F9300E020E040E084
:1030800060E084E094E00E9447040F910895EF927D
:103090000F931F93CF93DF93E80147FD02C034E005
:1030A00001C034E1E42F440FFF0BF7FF03C0F1959B
:1030B000E195F109E32E022F2E2FAE010E94F01BA5
:1030C000CE01DF91CF911F910F91EF900895F89469
:1030D0000C94611FAEE0B0E0E0E7F8E10C94321F21
:1030E0000D891E8986E08C831A8309838FEF9FE701
:1030F0009E838D83AE01475E5F4F6F89788DCE01D1
:1031000001960E941E1A2F813885F801E20FF31FE5
:1031100010822E96E4E00C944E1F5058BB27AA272D
:103120000E94A5180C9472190E94641938F00E942C
:103130006B1920F039F49F3F19F426F40C946119AF
:103140000EF4E095E7FB0C945B19E92F0E948319BC
:1031500058F3BA17620773078407950720F079F4CC
:10316000A6F50C94A5190EF4E0950B2EBA2FA02D00
:103170000B01B90190010C01CA01A0011124FF2724
:10318000591B99F0593F50F4503E68F11A16F0401F
:10319000A22F232F342F4427585FF3CF469537951E
:1031A0002795A795F0405395C9F77EF41F16BA0BE3
:1031B000620B730B840BBAF09150A1F0FF0FBB1F91
:1031C000661F771F881FC2F70EC0BA0F621F731FDA
:1031D000841F48F4879577956795B795F7959E3F37
:1031E00008F0B0CF9395880F08F09927EE0F9795C8
:1031F00087950895E89409C097FB3EF490958095D3
:10320000709561957F4F8F4F9F4F9923A9F0F92FAC
:1032100096E9BB279395F695879577956795B7952A
:10322000F111F8CFFAF4BB0F11F460FF1BC06F5F10
:103230007F4F8F4F9F4F16C0882311F096E911C022
:10324000772321F09EE8872F762F05C0662371F043
:1032500096E8862F70E060E02AF09A95660F771F57
:10326000881FDAF7880F9695879597F90895990F33
:103270000008550FAA0BE0E8FEEF16161706E80740
:10328000F907C0F012161306E407F50798F0621B61
:10329000730B840B950B39F40A2661F0232B242B36
:1032A000252B21F408950A2609F4A140A6958FEF55
:1032B000811D811D089597F99F6780E870E060E0A7
:1032C00008959FEF80EC089500240A9416161706BF
:1032D00018060906089500240A9412161306140607
:1032E00005060895092E0394000C11F4882352F06A
:1032F000BB0F40F4BF2B11F460FF04C06F5F7F4F22
:103300008F4F9F4F089557FD9058440F551F59F008
:103310005F3F71F04795880F97FB991F61F09F3FC2
:1033200079F087950895121613061406551FF2CFEB
:103330004695F1DF08C0161617061806991FF1CF3B
:1033400086957105610508940895E894BB27662762
:103350007727CB0197F908950E94BF190C94721931
:103360000E94641938F00E946B1920F0952311F027
:103370000C945B190C94611911240C94A6190E94E9
:10338000831970F3959FC1F3950F50E0551F629F0D
:10339000F001729FBB27F00DB11D639FAA27F00DAE
:1033A000B11DAA1F649F6627B00DA11D661F829FD5
:1033B0002227B00DA11D621F739FB00DA11D621FBA
:1033C000839FA00D611D221F749F3327A00D611DD7
:1033D000231F849F600D211D822F762F6A2F1124B9
:1033E0009F5750409AF0F1F088234AF0EE0FFF1FEC
:1033F000BB1F661F771F881F91505040A9F79E3F43
:10340000510580F00C945B190C94A6195F3FE4F30E
:10341000983ED4F3869577956795B795F795E79598
:103420009F5FC1F7FE2B880F911D9695879597F9A1
:1034300008950E943719880B990B0895ACE0B0E00D
:10344000E4E2FAE10C94241F7C016B018A01FC0187
:1034500017821682838181FFBDC1CE0101964C0186
:10346000F7019381F60193FD859193FF81916F019F
:10347000882309F4ABC1853239F493FD859193FF1C
:1034800081916F01853229F4B70190E00E946C1E92
:10349000E7CF512C312C20E02032A0F48B3269F0A0
:1034A00030F4803259F0833269F420612CC08D32BF
:1034B00039F0803339F4216026C02260246023C0B3
:1034C000286021C027FD27C030ED380F3A3078F44E
:1034D00026FF06C0FAE05F9E300D1124532E13C064
:1034E0008AE0389E300D1124332E20620CC08E32BB
:1034F00021F426FD6BC1206406C08C3611F42068CF
:1035000002C0883641F4F60193FD859193FF8191C5
:103510006F018111C1CF982F9F7D9554933028F46E
:103520000C5F1F4FFFE3F9830DC0833631F0833703
:1035300071F0833509F05BC022C0F8018081898376
:103540000E5F1F4F44244394512C540115C0380181
:10355000F2E06F0E711CF801A080B18026FF03C05D
:10356000652D70E002C06FEF7FEFC5012C870E94D0
:10357000611E2C0183012C852F77222E17C0380164
:10358000F2E06F0E711CF801A080B18026FF03C02D
:10359000652D70E002C06FEF7FEFC5012C870E94A0
:1035A000561E2C012C852068222E830123FC1BC073
:1035B000832D90E048165906B0F4B70180E290E000
:1035C0000E946C1E3A94F4CFF50127FC859127FEEA
:1035D00081915F01B70190E00E946C1E31103A9416
:1035E000F1E04F1A51084114510471F7E5C08436D7
:1035F00011F0893639F5F80127FF07C06081718124
:10360000828193810C5F1F4F08C060817181072EFA
:10361000000C880B990B0E5F1F4F2F76722E97FFB1
:1036200009C090958095709561957F4F8F4F9F4F02
:103630002068722E2AE030E0A4010E94A41EA82E69
:10364000A81844C0853729F42F7EB22E2AE030E036
:1036500025C0F22FF97FBF2E8F36C1F018F48835C0
:1036600079F0B4C0803719F0883721F0AFC02F2F20
:103670002061B22EB4FE0DC08B2D8460B82E09C01F
:1036800024FF0AC09F2F9660B92E06C028E030E0C4
:1036900005C020E130E002C020E132E0F801B7FED1
:1036A00007C060817181828193810C5F1F4F06C0CA
:1036B0006081718180E090E00E5F1F4FA4010E9445
:1036C000A41EA82EA818FB2DFF777F2E76FE0BC018
:1036D000372D3E7FA51450F474FE0AC072FC08C05A
:1036E000372D3E7E05C0BA2C372D03C0BA2C01C041
:1036F000B52C34FF0DC0FE01EA0DF11D8081803331
:1037000011F4397E09C032FF06C0B394B39404C0EB
:10371000832F867809F0B39433FD13C030FF06C0C1
:103720005A2CB31418F4530C5B18B32CB31468F46C
:10373000B70180E290E03C870E946C1EB3943C8508
:10374000F5CFB31410F43B1801C0312C34FF12C074
:10375000B70180E390E03C870E946C1E3C8532FFFD
:1037600017C031FD03C088E790E002C088E590E013
:10377000B7010CC0832F867859F031FF02C08BE26D
:1037800001C080E237FD8DE2B70190E00E946C1E1F
:10379000A51438F4B70180E390E00E946C1E5A949F
:1037A000F7CFAA94F401EA0DF11D8081B70190E0F2
:1037B0000E946C1EA110F5CF332009F451CEB70141
:1037C00080E290E00E946C1E3A94F6CFF701868169
:1037D000978102C08FEF9FEF2C96E2E10C94401F7F
:1037E0004F925F926F927F929F92AF92BF92CF92D1
:1037F000DF92EF92FF920F931F93CF93DF93CDB79A
:10380000DEB729970FB6F894DEBF0FBECDBF6A01B1
:10381000122FB02E2BE3201720F0FF24F394F00E8C
:1038200002C0BCE3FB2E0F2D27E0AE014F5F5F4FC0
:103830000E947E1DAC018981982F9970913031F0E2
:10384000E1FC06C0E0FE06C090E205C09DE203C0B8
:103850009BE201C090E0EE2DE07183FF3CC091112E
:1038600002C083E001C084E0811718F4212F281BD7
:1038700001C020E0E1110BC0F601822F30E2882365
:1038800019F031938150FBCFC20ED11C20E0992357
:1038900029F0D6019C93F60131966F01C60103967B
:1038A000E2FE0AC03EE4D6013C9341E411964C93FB
:1038B000119712963C9306C03EE6F601308341E62E
:1038C00041833283FC01322F40E2332309F442C0AA
:1038D00041933150FACF82FF44C0911102C083E07E
:1038E00001C084E0811718F4212F281B01C020E0BB
:1038F000E1110BC0F601822F30E2882319F03193D9
:103900008150FBCFC20ED11C20E0992329F0D601B3
:103910009C93F60131966F01C6010396E2FE0BC03F
:1039200039E4D6013C933EE411963C93119736E47A
:1039300012963C9307C039E6F60130833EE63183A8
:1039400036E63283FC01322F40E2332319F04193F3
:103950003150FBCFFC01E20FF11D10828EEF9FEF83
:10396000B7C0F1E0911101C0F0E06F2F70E01416C4
:10397000150624F49A012F5F3F4F02C021E030E08A
:10398000260F371FBB2029F06B2D70E06F5F7F4F34
:1039900002C060E070E0260F371F612F70E026172D
:1039A00037071CF4121B212F01C020E03E2D387177
:1039B00059F4D601322F60E2332319F06D93315060
:1039C000FBCFC20ED11C20E0FF2331F0D6019C9327
:1039D000B6016F5F7F4F6B01E1110BC0F601922FB3
:1039E00030E3992319F031939150FBCFC20ED11CD3
:1039F00020E09F2D940F3A81782F7071A72E84FFBD
:103A000003C0313309F49150191624F4993018F099
:103A100098E001C091E0E42F852F57FF02C0E0E05D
:103A200080E06E2F782FE0E0F0E0AEE29A2E3A01CF
:103A3000691A71082A01461A570A0B2D10E01195D0
:103A4000019511096F3F8FEF780729F4D6019C92F9
:103A5000C60101966C014617570784F06616770673
:103A60006CF47F01E40CF51CA1E0B0E0AC0FBD1FCD
:103A7000EA0EFB1ED7011196BC9002C090E3B92E4E
:103A8000615071093196C60101967C01601771077A
:103A900024F0D601BC926C01D5CF6417750741F4B0
:103AA000363320F4353321F4A11002C081E3B82E5F
:103AB000F601B082F701822F90E2882319F09193EA
:103AC0008150FBCFF701E20FF11D108280E090E002
:103AD00029960FB6F894DEBF0FBECDBFDF91CF9110
:103AE0001F910F91FF90EF90DF90CF90BF90AF901C
:103AF0009F907F906F905F904F900895283008F0CE
:103B000027E03327DA01990F311D87FD9160009678
:103B10006105710539F432602E5F3D9330E32A95DB
:103B2000E1F708959F3F30F080387105610509F095
:103B30003C5F3C5F3D93913008F08068911DDF93BE
:103B4000CF931F930F93FF92EF92192F987F969523
:103B5000E92F96959695E90FFF27E45EFE4F99278A
:103B60003327EE24FF24A701E7010590089407946A
:103B700028F4360FE71EF81E491F511D660F771FE8
:103B8000881F991F0694A1F70590079428F4E70E63
:103B9000F81E491F561FC11D770F881F991F661FEA
:103BA0000694A1F70590079428F4F80E491F561FB4
:103BB000C71FD11D880F991F661F771F0694A1F795
:103BC0000590079420F4490F561FC71FD81F990F5F
:103BD000661F771F881F0694A9F7849110951770A8
:103BE00041F0D695C79557954795F794E7941A9560
:103BF000C1F7E2ECF0E0689415901591359165916C
:103C0000959105907FE27395E118F10A430B560BED
:103C1000C90BD009C0F7E10CF11E431F561FC91F85
:103C2000D01D7EF4703311F48A95E6CFE8940150EC
:103C300030F0080F0AF40027021708F4202F23950C
:103C4000022F7A3328F079E37D932A95E9F710C0A3
:103C50007D932A9589F606949795679537951795DC
:103C60001794E118F10A430B560BC90BD00998F0D1
:103C700023957E9173957A3308F070E37C9320133B
:103C8000B8F77E9170617D9330F0839571E37D93F9
:103C900070E32A95E1F71124EF90FF900F911F91A7
:103CA000CF91DF91992787FD90950895FC010590AC
:103CB000615070400110D8F7809590958E0F9F1F2E
:103CC0000895FC016150704001900110D8F7809573
:103CD00090958E0F9F1F08950F931F93CF93DF939F
:103CE000FB01238121FD03C08FEF9FEF28C022FF3E
:103CF00016C046815781248135814217530744F409
:103D0000A081B1819D012F5F3F4F318320838C9330
:103D1000268137812F5F3F4F3783268310C0EB0109
:103D2000092F182F0084F185E02D0995892BE1F6E4
:103D30008E819F8101969F838E83812F902FDF91AB
:103D4000CF911F910F910895FA01AA27283051F1C0
:103D5000203181F1E8946F936E7F6E5F7F4F8F4FBC
:103D60009F4FAF4FB1E03ED0B4E03CD0670F781F1B
:103D7000891F9A1FA11D680F791F8A1F911DA11D00
:103D80006A0F711D811D911DA11D20D009F4689439
:103D90003F912AE0269F11243019305D3193DEF6E1
:103DA000CF010895462F4770405D4193B3E00FD097
:103DB000C9F7F6CF462F4F70405D4A3318F0495D82
:103DC00031FD4052419302D0A9F7EACFB4E0A69565
:103DD0009795879577956795BA95C9F70097610587
:103DE000710508959B01AC010A2E069457954795DD
:103DF00037952795BA95C9F7620F731F841F951FD2
:103E0000A01D0895A1E21A2EAA1BBB1BFD010DC027
:103E1000AA1FBB1FEE1FFF1FA217B307E407F5077A
:103E200020F0A21BB30BE40BF50B661F771F881F56
:103E3000991F1A9469F760957095809590959B01EC
:103E4000AC01BD01CF0108952F923F924F925F9236
:103E50006F927F928F929F92AF92BF92CF92DF929A
:103E6000EF92FF920F931F93CF93DF93CDB7DEB7FF
:103E7000CA1BDB0B0FB6F894DEBF0FBECDBF099493
:103E80002A88398848885F846E847D848C849B84EA
:103E9000AA84B984C884DF80EE80FD800C811B81F8
:103EA000AA81B981CE0FD11D0FB6F894DEBF0FBE27
:103EB000CDBFED010895EE0FFF1F0590F491E02DA9
:063EC0000994F894FFCF05
:103EC6000A0215020004436C69656E7420636F6E06
:103ED6006E656374656400485454502F312E31204A
:103EE600323030204F4B00436F6E74656E742D5424
:103EF6007970653A206170706C69636174696F6E80
:103F06002F6A736F6E00436F6E6E656374696F6EB2
:103F16003A20636C6F7365007B22726573756C74EF
:103F2600223A203530302C202274797065223A20CE
:103F36002273656E736F72222C20226D6573736116
:103F46006765223A20224661696C656420746F2099
:103F5600726561642066726F6D20444854207365F3
:103F66006E736F72227D00436C69656E742064699E
:103F760073636F6E6E6563746564007B227265732E
:103F8600756C74223A203230302C20227479706598
:103F9600223A202273656E736F72222C202264618E
:103FA6007461223A207B2274656D70657261747546
:103FB6007265223A2025662C202268756D6964692F
:103FC6007479223A2025667D7D00363736363836B6
:103FD6003330303000526F6D0000000000FB0300EC
:103FE600000000C0041803690495047904B50400B0
:103FF600000000440679069706A206C0065A065F28
:1040060007E306BC06CB070D087106000000005A40
:104016000B1F0C700B436F6E6E656374696E6720C1
:10402600746F204150202E2E2E00417474656D70E1
:1040360074696E6720746F20636F6E6E656374209B
:10404600746F2057504120535349443A2000436F20
:104056006E6E656374656420746F20415000576905
:10406600466920736869656C64206E6F742070728F
:104076006573656E7400000000007016B9166C1644
:10408600CD161517861681179816AD16D317B516C1
:0A4096002E17F6165116581668167C
:00000001FF
