:100000000C94DF000C9407010C9407010C94070179
:100010000C9407010C9407010C9407010C94070140
:100020000C9407010C9407010C9407010C94070130
:100030000C9407010C9407010C9407010C94070120
:100040000C94380C0C9407010C942B0B0C94050B9E
:100050000C9407010C9407010C9407010C94070100
:100060000C9407010C94070100407A10F35A00A089
:10007000724E18090010A5D4E80000E87648170071
:1000800000E40B54020000CA9A3B000000E1F505B1
:10009000000080969800000040420F000000A086FB
:1000A00001000000102700000000E803000000002D
:1000B0006400000000000A000000000001000000D1
:1000C00000002C76D888DC674F0823DFC1DFAE59EB
:1000D000E1B1B796E5E3E453C63AE651997696E87E
:1000E000E6C28426EB898C9B62ED407C6FFCEFBC02
:1000F0009C9F40F2BAA56FA5F490055A2AF75C932D
:100100006B6CF9676DC11BFCE0E40D47FEF520E662
:10011000B500D0ED902E0300943577050080841E45
:10012000080000204E0A000000C80C333333330FA0
:10013000986E12831141EF8D2114893BE65516CF3D
:10014000FEE6DB18D1844B381BF77C1D901DA4BB49
:10015000E424203284725E228100C9F124ECA1E5FE
:100160003D2700000000240027002A0000000000B6
:10017000250028002B0000000008000201000003F9
:100180000407000000000000000000000000230041
:1001900026002900040404040404040402020202E8
:1001A000020203030303030301020408102040803A
:1001B0000102040810200102040810209B141124DD
:1001C0001FBECFEFD8E0DEBFCDBF13E0A0E0B1E0AF
:1001D000EAEBFCE302C005900D92AE33B107D9F70C
:1001E00024E0AEE3B3E001C01D92A337B207E1F70C
:1001F00010E0CFEDD0E004C02197FE010E94491C21
:10020000CE3DD107C9F70E9466150C945B1E0C9475
:100210000000CF93DF931F92CDB7DEB76983DC0177
:10022000ED91FC910280F381E02D41E050E0BE01B0
:100230006F5F7F4F09950F90DF91CF910895DC019B
:10024000ED91FC91068CF78DE02D099591E08927C1
:100250000895862F089581E08627089580E0089507
:10026000089580E090E00895CF92DF92EF92FF92A0
:100270000F931F93CF93DF93CDE7D1E00FEA11E007
:100280003BE9E32E31E0F32EFE018491F801C490A6
:10029000F701D490DD2079F081110E945D0B8D2D46
:1002A00090E0880F991F86579E4FFC01A591B4914D
:1002B0008C91C82249F7DF91CF911F910F91FF9048
:1002C000EF90DF90CF900895CF93CFB7F8948091BF
:1002D0003E03811127C0EEE9F1E08491E2EBF1E009
:1002E0009491E82FF0E0EE0FFF1FEE59FE4FA5911D
:1002F000B491EC91E92321F461E08AE00E94860B3D
:1003000061E08AE00E94B60B8CB580618CBD8CB533
:1003100080648CBD61E08DE00E94B60B61E08BE0F3
:100320000E94B60B80913E038F5F80933E03CFBF48
:1003300061E08AE00E94B60B60E087E00E94B60BA5
:1003400061E089E00E94B60B61E08AE00E94860BC2
:1003500061E08AE00E94860B60E089E0CF910C9416
:10036000860B08958CBD9DBD08958F929F92AF928C
:10037000BF92CF92DF92EF92FF920F931F93CF9392
:100380006C015B017A01FC01C485C43041F481E059
:1003900090E0F6019383828380E090E04EC08A0172
:1003A0004130584010F000E018E080E590E00E94F5
:1003B000B2018C2F0E94E70F4C0163E070E08C2F9C
:1003C0000E949712873111F08C3121F4801691062A
:1003D00060F302C000E010E080E590E00E94B2010E
:1003E0009801A50160E070E08C2F0E94820F60E20E
:1003F00070E08C2F0E94360E62E070E08C2F0E941D
:10040000971284FD10C063E070E08C2F0E94971259
:10041000811104C08C2F0E943A09B9CF80E590E089
:100420000E94B201E9CF40E162E070E08C2F0E94AF
:100430006E12012B09F4ABCFC701CF911F910F9121
:10044000FF90EF90DF90CF90BF90AF909F908F90F4
:100450000895CF92DF92FF920F931F93CF93DF9374
:10046000FC012485243009F077C06A01EB018C017E
:10047000F12C8F2D0E944E09811103C0F801F486E2
:1004800007C08B7F8831D1F3F394F4E0FF12F1CFF2
:10049000F8018485843009F45FC020910001309117
:1004A00001012F5F3F4F11F420E030EC3093010148
:1004B00020930001409100015091010120E061E092
:1004C0000E94150DF801F4848A818F3F51F48B81CD
:1004D0008F3F91F48C818F3F79F48D818F3F61F450
:1004E00038C0811109C08B81811106C08C818111B6
:1004F00003C08D81882369F1C114D10451F180E5D5
:1005000090E00E94B201BE016E5F7F4F8F2D90E0A0
:10051000982F882744E050E0845F9B4F0E94B60CE0
:10052000B6018F2D0E94BD1264E070E08F2D0E94F5
:10053000360EC8010E94CE12873189F061E070E06A
:1005400080E090E00E94F20BC8010E94CE1281115F
:10055000F0CF84E0F801848780E090E002C081E081
:1005600090E0DF91CF911F910F91FF90DF90CF909E
:1005700008952F923F924F925F926F927F928F9247
:100580009F92AF92BF92CF92DF92EF92FF920F9322
:100590001F93CF93DF93CDB7DEB765970FB6F8946F
:1005A000DEBF0FBECDBF7C016B013A01FB0120E035
:1005B00080E090E06AE03191332309F140ED430F90
:1005C0004A3080F4689FA001699F500D1124CA0130
:1005D000C097830F911D37FD9A958F3F910559F371
:1005E00050F313C03E3289F4233079F0D301A20FC7
:1005F000B11D12968C932F5F80E090E0DCCF23300A
:1006000021F4F301858381E021C0F7014281538108
:10061000648175818091020490910304A091040487
:10062000B0910504481759076A077B0709F49EC172
:100630000E942C0C8701085F1F4F6F7077277C5F2B
:10064000C8010E94F711813019F080E090E0F3C1F9
:1006500080E591E09A838983F70182819381A48167
:10066000B5818B839C83AD83BE8345E350E0BE019F
:100670006F5F7F4FC8010E94FF06892B19F4C12CC0
:10068000D12C6FC10E942C0CF701778366837627EB
:10069000672776277A83698342E050E0BE016F5F67
:1006A0007F4FC8010E94CF0781E090E09E878D8731
:1006B00042E050E0BE01635F7F4FC8010E94CF0758
:1006C00080E091E09E878D8742E050E0BE01635F4D
:1006D0007F4FC8010E94CF071E861D8642E050E072
:1006E000BE01635F7F4FC8010E94CF0742E050E028
:1006F000BE01635F7F4FC8010E94CF0742E050E018
:10070000BE01635F7F4FC8010E94CF075601F5010C
:100710008081882311F1F6015F018191811115C05B
:1007200045018C189D081814190494F48F8641E033
:1007300050E0BE01615F7F4FC8010E94CF07A40156
:10074000B601C8010E94CF0703C08E3229F7E8CF57
:100750006501FFEFCF1ADF0ADACF1F8641E050E0D4
:10076000BE01615F7F4FC8010E94CF07C12CDD240D
:10077000D394DE86CD8642E050E0BE01635F7F4FBA
:10078000C8010E94CF07DE86CD8642E050E0BE0160
:10079000635F7F4FC8010E94CF07C8010E94C70650
:1007A000892B09F46CCF63E0A62EB12CF2E06F0E1A
:1007B000711C0E942C0C1B012C01C8010E94E10835
:1007C00018161906A4F00E942C0CDC01CB0182192A
:1007D0009309A409B50989389341A105B105D0F45D
:1007E00062E370E080E090E00E94F20BE6CFF70158
:1007F0004281538164817581808D918DA28DB38DED
:10080000481759076A077B0741F4848D958DC59772
:1008100021F406C02FEF3FEF9AC02EEF3FEF97C0B5
:10082000F70181A192A10C970CF4A6C04CE050E016
:10083000BE016F5F7F4FC8010E9499088B8190E0D5
:10084000982F88272C81822B9A8B898B298130E0E5
:10085000322F22274A81242BF701468157814217E4
:10086000530709F086C097FF84C08F709270892B60
:1008700009F0DEC0CF80D12CDC2CCC248885C82A9E
:10088000C114D10409F4D1C0812C912C8D8190E048
:10089000982F88272E81822B8816990608F46FC01E
:1008A000812C912C41E050E0BE016D5E7F4FC8016C
:1008B0000E9499088B89982F907C09F093C0811130
:1008C00086C08B898111EECF42E050E0BE01615FAE
:1008D0007F4FC8010E94990842E050E0BE01635F6B
:1008E0007F4FC8010E949908C8010E94B808C8013A
:1008F0000E94B808C8010E94B808C8010E94B80840
:1009000042E050E0BE016F5E7F4FC8010E9499082F
:100910008F8598898115914009F069C02D853E85A4
:100920003227232732272130310509F060C0898919
:100930009A898115944009F075C044E050E0B301F4
:10094000C8012C8B3D8B0E9499082C893D89690137
:10095000F1E0AF1AB10829F02FEFC216D20609F460
:1009600028CFC8010E94E211C60165C08EEF9FEF3B
:1009700062C02CEF3FEFEBCF2DEF3FEFE8CF41E030
:1009800050E0BE01635F7F4FC8010E9499088D85CA
:10099000811113C08D858111F2CFC8010E94B80862
:1009A000C8010E94B808C8010E94B808C8010E9486
:1009B000B808FFEF8F1A9F0A69CF8D859FEF980FB8
:1009C0009D87882339F3C8010E94B808F6CF8B8928
:1009D0009FEF980F9B8B882309F473CFC8010E9467
:1009E000B808F5CFC8010E94B8081B8A6ACF412C0D
:1009F000512C89899A89982789279827481659065A
:100A000038F4C8010E94B8088FEF481A580AF1CF8D
:100A1000EFEF8E1A9E0A8C149D0409F043CF26EF47
:100A20003FEF95CF27EF3FEF92CF2AEF3FEF8FCFEA
:100A30002BEF3FEF8CCF65960FB6F894DEBF0FBE5D
:100A4000CDBFDF91CF911F910F91FF90EF90DF907D
:100A5000CF90BF90AF909F908F907F906F905F905E
:100A60004F903F902F900895CF92DF92EF92FF9298
:100A70000F931F93CF93DF93CDB7DEB7AF970FB62A
:100A8000F894DEBF0FBECDBF7C016A0100E511E026
:100A90001A8309831C861B8688EE93E0A0E0B0E0F1
:100AA0008D879E87AF87B88B88EC91E09A8789877E
:100AB000188F0F8B198E1A8E1B8E1C8E84E089A3C3
:100AC0001DA30CA31EA21FA218A619A68091FA03AB
:100AD0009091FB03A091FC03B091FD038CA79DA70F
:100AE000AEA7BFA78B839C83AD83BE8318861F826E
:100AF000AE014C5D5F4FCE0101960E94B90281307C
:100B00009105B1F4D701ED91FC910684F785E02DB4
:100B10001BA70AA78EA19FA1A8A5B9A58CA79DA7D1
:100B2000AEA7BFA7A601BE01665D7F4FC7010995AD
:100B3000AF960FB6F894DEBF0FBECDBFDF91CF9159
:100B40001F910F91FF90EF90DF90CF9008958EBD91
:100B500000000DB407FEFDCF8EB50895CF93DF934F
:100B60001F92CDB7DEB7898389810E94A7052AE04D
:100B700030E0000021503109E1F70F90DF91CF9173
:100B80000895CF93DF9300D0CDB7DEB780913F03B8
:100B9000811105C00E94640181E080933F030E949F
:100BA000340160E08AE00E94860B80EE0E94AE0570
:100BB00083E290E00197F1F780E20E94AE0580E0C9
:100BC0000E94AE058EEE0E94AE050E9434018FEFAA
:100BD0008A831982AE014F5F5F4FBE016E5F7F4F08
:100BE00080E20E94D20D61E08AE00E94860B8A8139
:100BF0000F900F90DF91CF910895CF93DF93EC0189
:100C00008FEF0E94AE0588838AE090E00000019794
:100C1000E9F7DF91CF910895CF92DF92EF92FF92A3
:100C20000F931F93CF93DF9300D0CDB7DEB76CEE59
:100C300071E08BE593E00E94F10A0E94C105082F44
:100C400010E0DD24D39483E2E82EF12CCC24CA9466
:100C50000330110509F473C061E072E08BE593E0A5
:100C60000E94DC0A65E272E08BE593E00E94F10AE3
:100C700080913F03811104C00E946401D0923F0320
:100C80000E94340160E08AE00E94860B80EE0E94A0
:100C9000AE05C7010197F1F781E10E94AE0582E040
:100CA0000E94AE0583E00E94AE0582E50E94AE057B
:100CB0008FE60E94AE058DE60E94AE058AE00E9496
:100CC000AE0509E212E0F80181918F010E94AE05A4
:100CD000F2E003331F07B9F78EEE0E94AE050E94C3
:100CE00034011A821982AE014F5F5F4FBE016E5F01
:100CF0007F4F81E10E94D20D892B09F4CA8261E005
:100D00008AE00E94860B8A818F3F79F01AE068E8BA
:100D100073E180E090E00E94F20B0E94C105982FE1
:100D20009D7F21F4115099F701C084E0082F10E055
:100D300064EF71E080E090E00E94F20B89CF64E301
:100D400072E08BE593E00E94F10A0F900F90DF9123
:100D5000CF911F910F91FF90EF90DF90CF9008956A
:100D60000895CF93DF931F92CDB7DEB76983DC017F
:100D7000ED91FC910280F381E02D41E050E0BE0155
:100D80006F5F7F4F09950F90DF91CF910895CF93BB
:100D9000FC01C08D80E590E00E94B20160E270E04D
:100DA0008C2F0E94360E62E070E08C2F0E9497120A
:100DB00084FD19C062E070E08C2F0E94971283FFBF
:100DC0000BC048E162E070E08C2F0E946E120E941E
:100DD000B10180E090E011C00E94B10180E590E097
:100DE0000E94B201E0CF40E162E070E08C2F0E94EF
:100DF0006E120E94B10181E090E0CF910895FF92C0
:100E00000F931F93CF93DF93FB01DC0157961C9246
:100E10001E9256975896FC908281811109C0838159
:100E2000811106C08481811103C085818823F9F076
:100E300041155105E1F08A01EF0180E590E00E9443
:100E4000B201BE016E5F7F4F2F2D30E0922F8827B9
:100E500044E050E0845F9B4F0E94B60CB8018F2D98
:100E60000E94BD120E94B10181E090E002C080E0CA
:100E700090E0DF91CF911F910F91FF900895BF9265
:100E8000CF92DF92EF92FF920F931F93CF93DF9356
:100E900000D000D000D0CDB7DEB7FC01208D2430CB
:100EA00009F053C06A017B018C01B12C63E070E052
:100EB0008B2D0E949712811103C0F801B08E06C0DD
:100EC0008831D9F3B394F4E0BF12F0CFF801808DEC
:100ED0008430D9F196E0E8E0F1E0DE01119601906E
:100EE0000D929A95E1F7F70193819F779C83948106
:100EF0009D8395819E83B7016E5F7F4F90E0982F11
:100F0000882744E050E0845F9B4F0E94B60CB601F6
:100F1000F801808D0E94BD12F801808D90E0982F1D
:100F2000882746E050E0BE016F5F7F4F8A5F9B4F8E
:100F30000E94B60CF801128E118E20E8A60162E024
:100F4000808D0E94150D81E001C080E026960FB6CD
:100F5000F894DEBF0FBECDBFDF91CF911F910F91EF
:100F6000FF90EF90DF90CF90BF900895CF93DF93E5
:100F70001F92CDB7DEB7FC01218D328D232B49F0B6
:100F8000BE016F5F7F4F808D0E94590D898190E077
:100F900002C08FEF9FEF0F90DF91CF910895AF9236
:100FA000BF92CF92DF92FF920F931F93CF93DF9365
:100FB0008C015B01EA01FC01C688D788F08C80E5D2
:100FC00090E00E94B2018F2D0E94E70F8C179D07C1
:100FD00020F48F2D0E94E70FEC019E01A501B601C0
:100FE0008F2D0E94820F0E94B101F8018689978996
:100FF0008C0F9D1F978B868BCE01DF91CF911F9118
:101000000F91FF90DF90CF90BF90AF900895FF9227
:101010000F931F93CF93DF93F82E80E590E00E940B
:10102000B201C0E0D0E08F2D0E94E50C8C01892B2D
:1010300021F08F2D0E94E50CEC01C017D10799F724
:101040000E94B101CE01DF91CF911F910F91FF90CE
:101050000895AF92BF92DF92EF92FF920F931F938A
:10106000CF93DF93D82E7B018A0180E590E00E9428
:10107000B201C0E0D0E08D2D0E94E50C5C01892B0F
:1010800021F08D2D0E94E50CEC01CA15DB0599F7C6
:10109000209799F463E070E08D2D0E9497128431BF
:1010A000D9F18823C9F1C1E0D0E08C3111F4C0E05E
:1010B000D0E0D195C195D1092FC00C171D070CF4B4
:1010C000E8011C161D0644F568E270E08D2D0E94B3
:1010D0009712082F10E069E270E08D2D0E949712A0
:1010E000102F0027082B9E01A701B8018D2D0E940B
:1010F0003D0F0C0F1D1F412F68E270E08D2D0E94E7
:101100006E12402F69E270E08D2D0E946E1260E435
:1011100070E08D2D0E94360E0E94B101CE01DF914C
:10112000CF911F910F91FF90EF90DF90BF90AF9004
:101130000895CF93DF93FC01218D328D2115310568
:1011400019F48FEF9FEF11C0EC014217530708F01D
:10115000A901888D0E9429081816190694F7298D6F
:101160003A8D281B390B3A8F298FDF91CF91089543
:101170000F931F93CF93DF931F92CDB7DEB7FC0180
:10118000218D328D232B61F08C0141E050E0BE01B6
:101190006F5F7F4F808D0E942908181619061CF07A
:1011A0008FEF9FEF08C0F801818D928D0197928F8C
:1011B000818F898190E00F90DF91CF911F910F91E6
:1011C00008950F931F93CF93DF93CDB7DEB7289782
:1011D0000FB6F894DEBF0FBECDBF8C01F801818D34
:1011E000928D892B49F0D801ED91FC910284F38511
:1011F000E02DC8010995F2CF808D0E9407081816CE
:1012000019065CF548E050E0BE016F5F7F4FD801E2
:1012100058968C910E9429089C0118161906DCF436
:1012200089819A81AB81BC81F801808B918BA28BE3
:10123000B38B8D8190E0982F88272E81820F911D8E
:10124000958B848B2F8130E0322F22278885280FC1
:10125000311D328F218FC90102C080E090E02896B5
:101260000FB6F894DEBF0FBECDBFDF91CF911F91B7
:101270000F910895CF93C82F80E590E00E94B201AE
:1012800060E170E08C2F0E94360E4FEF62E070E05C
:101290008C2F0E946E12CF910C94B1011F93CF93AB
:1012A000DF931F92CDB7DEB7182F80E590E00E9444
:1012B000B20163E070E0812F0E94971289830E943F
:1012C000B10189810F90DF91CF911F910895CF9245
:1012D000DF92EF92FF920F931F93CF93DF936C01F6
:1012E0007A018B01C0E0D0E0CE15DF0589F0D8018E
:1012F0006D918D01D601ED91FC910190F081E02D71
:10130000C6010995892B11F47E0102C02196ECCF0C
:10131000C701DF91CF911F910F91FF90EF90DF9068
:10132000CF900895FC01538D448D252F30E0842FFC
:1013300090E0821B930B541710F0CF9608950197FD
:101340000895FC01918D828D981761F0828DDF01E7
:10135000A80FB11D5D968C91928D9F5F9F73928FA8
:1013600090E008958FEF9FEF0895FC01918D828D9D
:10137000981731F0828DE80FF11D858D90E008956A
:101380008FEF9FEF0895FC01918D228D892F90E0C2
:10139000805C9F4F821B91098F73992708958BE57D
:1013A00093E00E94C30921E0892B09F420E0822FF9
:1013B0000895FC01848DDF01A80FB11DA35ABF4F12
:1013C0002C91848D90E001968F739927848FA68944
:1013D000B7892C93A089B1898C9180648C93938D6B
:1013E000848D981306C00288F389E02D80818F7D5B
:1013F00080830895EF92FF920F931F93CF93DF9313
:10140000EC0181E0888F9B8D8C8D981305C0E88955
:10141000F989808185FD24C0F62E0B8D10E00F5FC9
:101420001F4F0F731127E02E8C8DE8120CC00FB6E2
:1014300007FCFACFE889F989808185FFF5CFCE01D5
:101440000E94D909F1CF8B8DFE01E80FF11DE35AFF
:10145000FF4FF0820B8FEA89FB898081806207C091
:10146000EE89FF896083E889F989808180648083BF
:1014700081E090E0DF91CF911F910F91FF90EF906D
:101480000895CF93DF93EC01888D8823C9F0EA8912
:10149000FB89808185FD05C0A889B9898C9186FD6D
:1014A0000FC00FB607FCF5CF808185FFF2CFA8896A
:1014B000B9898C9185FFEDCFCE010E94D909E7CF84
:1014C000DF91CF91089580E090E0892B29F00E9470
:1014D000CF0981110C94000008953FB7F8948091D2
:1014E000470390914803A0914903B0914A0326B560
:1014F000A89B05C02F3F19F00196A11DB11D3FBF4C
:10150000BA2FA92F982F8827820F911DA11DB11DD9
:10151000BC01CD0142E0660F771F881F991F4A95D5
:10152000D1F708958F929F92AF92BF92CF92DF92A0
:10153000EF92FF920F931F93CF93DF937C01EB0108
:101540006C0182E0C80ED11C4701E5E08E0E911CB3
:1015500000E010E0F60141916F0150E060E070E0C2
:101560002AE0CE010E94DD105C01E881F981019042
:10157000F081E02D6EE2CE0109958A0D9B1D080FCA
:10158000191FC814D90431F7F701458150E060E014
:1015900070E02AE0CE010E94DD10800F911FDF91E4
:1015A000CF911F910F91FF90EF90DF90CF90BF9060
:1015B000AF909F908F9008956115710579F0FB01B0
:1015C00001900020E9F73197AF01461B570BDC0172
:1015D000ED91FC910280F381E02D099480E090E090
:1015E00008950F931F93CF93DF93EC010E94DC0AC1
:1015F0008C0164E472E0CE010E94DC0A800F911F2E
:10160000DF91CF911F910F9108951F920F920FB606
:101610000F9211242F933F934F935F936F937F9378
:101620008F939F93AF93BF93EF93FF938BE593E0DB
:101630000E94D909FF91EF91BF91AF919F918F9136
:101640007F916F915F914F913F912F910F900FBEBE
:101650000F901F9018951F920F920FB60F921124A2
:101660002F938F939F93EF93FF93E0916B03F091F0
:101670006C038081E0917103F091720382FD12C0CE
:101680009081809174038F5F8F732091750382170F
:1016900051F0E0917403F0E0E55AFC4F958F809390
:1016A000740301C08081FF91EF919F918F912F91E1
:1016B0000F900FBE0F901F901895833081F028F483
:1016C000813099F08230A1F008958730A9F08830F8
:1016D000B9F08430D1F4809180008F7D03C0809177
:1016E00080008F7780938000089584B58F7702C043
:1016F00084B58F7D84BD08958091B0008F7703C03D
:101700008091B0008F7D8093B00008951F93CF9398
:10171000DF93282F30E0F901EA58FE4F8491F90158
:10172000E855FE4FD491F901EC56FE4FC491CC23FD
:10173000C9F0162F81110E945D0BEC2FF0E0EE0F27
:10174000FF1FE459FE4FA591B4918FB7F894111182
:1017500005C09C91ED2FE095E92302C0EC91ED2BA3
:10176000EC938FBFDF91CF911F910895CF93DF93BB
:1017700090E0FC01E855FE4F2491FC01EC56FE4F31
:101780008491882361F190E0880F991FFC01EE5944
:10179000FE4FC591D491FC01E459FE4FA591B4913F
:1017A000611109C09FB7F8948881209582238883AE
:1017B000EC912E230BC0623061F49FB7F89438810E
:1017C000822F809583238883EC912E2B2C939FBFAF
:1017D00006C08FB7F894E8812E2B28838FBFDF9146
:1017E000CF9108958F929F92AF92BF92CF92DF9246
:1017F000EF92FF926B017C010E946D0A4B015C012C
:10180000C114D104E104F104F1F00E946D0ADC017D
:10181000CB0188199909AA09BB09883E9340A10503
:10182000B10570F321E0C21AD108E108F10888EE91
:10183000880E83E0981EA11CB11CC114D104E104E0
:10184000F10419F7DDCFFF90EF90DF90CF90BF90BC
:10185000AF909F908F9008952FB7F89460914303B5
:101860007091440380914503909146032FBF0895E2
:101870001F920F920FB60F9211242F933F938F93C5
:101880009F93AF93BF938091430390914403A091A2
:101890004503B09146033091420323E0230F2D37D7
:1018A00020F40196A11DB11D05C026E8230F029664
:1018B000A11DB11D209342038093430390934403E1
:1018C000A0934503B093460380914703909148034A
:1018D000A0914903B0914A030196A11DB11D8093C7
:1018E000470390934803A0934903B0934A03BF91E1
:1018F000AF919F918F913F912F910F900FBE0F90BD
:101900001F9018952A9A08952A980895CF92DF92E9
:10191000EF92FF920F931F93CF93DF93EC017A0125
:101920008B016C01C40ED51ECC15DD05A9F00E94FB
:10193000840C8FE00E94A7058D2F0E94A7058C2F95
:101940000E94A705219680E00E94A705F8018193D7
:101950008F010E94820CE8CFC701DF91CF911F91C8
:101960000F91FF90EF90DF90CF900895CF92DF928C
:10197000EF92FF920F931F93CF93DF93EC017A01C5
:101980008B016C01C40ED51ECC15DD05A1F00E94A3
:10199000840C80EF0E94A7058D2F0E94A7058C2F35
:1019A0000E94A7052196F80181918F010E94A70549
:1019B0000E94820CE9CFC701DF91CF911F910F9157
:1019C000FF90EF90DF90CF9008951F93CF93DF9318
:1019D000182F66E270E00E949712C82FD0E067E2ED
:1019E00070E0812F0E949712DC2FCC279E01282BBC
:1019F000C901DF91CF911F9108951F93CF93DF937A
:101A0000182F60E270E00E949712C82FD0E061E2C8
:101A100070E0812F0E949712DC2FCC279E01282B8B
:101A2000C901DF91CF911F910895FF920F931F93EA
:101A3000CF93DF9300D0CDB7DEB7F82E8A012A838B
:101A400069830E943A0980E590E00E94B2012A81F0
:101A50006981462F422B60E070E08F2D0E946E124C
:101A60000115110551F400914003109141030F5FDE
:101A70001F4F1093410300934003412F64E070E037
:101A80008F2D0E946E12402F65E070E08F2D0E9416
:101A90006E1261E070E08F2D0E94360E0E94B1013F
:101AA00081E00F900F90DF91CF911F910F91FF90E8
:101AB0000895EF92FF921F93CF93DF93182F7B012E
:101AC00080E590E00E94B20168E270E0812F0E9400
:101AD0009712C82FD0E069E270E0812F0E94971220
:101AE000DC2FCC27BE01682B21E030E0A701812F3D
:101AF0000E943D0F0E94B10181E090E0DF91CF9103
:101B00001F91FF90EF9008958F929F92AF92BF9296
:101B1000CF92DF92EF92FF92CF93DF93A0910D04CB
:101B2000882311F03A2F01C030E080910E0490E03C
:101B3000880F991F86579E4FC0901304D0901404AD
:101B4000E0901504F090160440E050E0BA01FC016A
:101B5000C591D49128812A2323130FC04A015B0128
:101B60002FEF821A920AA20AB20A4C155D056E0581
:101B70007F0538F4B501A401EACF342F252FCB011E
:101B800004C030E020E080E090E0632F722FDF910E
:101B9000CF91FF90EF90DF90CF90BF90AF909F904C
:101BA0008F900895AF92BF92CF92DF92EF92FF9203
:101BB0000F931F93CF93DF9300D0CDB7DEB7182FCD
:101BC0006B017A011A8289EEA82E83E0B82E198261
:101BD000CE0101960E94FD0589818F3E31F091E092
:101BE000A91AB10899F1803E91F7CE0102960E94A0
:101BF000FD0510688A81811719F080E090E029C006
:101C0000CE0102960E94FD058A818130B1F78FEFE7
:101C10000E94AE05E114F10411F0F701808300E0A9
:101C200010E0F701808190E00817190744F4C6011D
:101C3000800F911F0E94FD050F5F1F4FF2CFCE0155
:101C400002960E94FD0581E090E003C0803EA9F667
:101C5000CCCF0F900F90DF91CF911F910F91FF90FC
:101C6000EF90DF90CF90BF90AF900895CF93C82FA3
:101C7000462F61E070E00E946E1261E070E08C2FF0
:101C80000E9497128111F9CFCF910895CF92DF92E0
:101C9000EF92FF920F931F93CF93DF93CDB7DEB7F1
:101CA000C054D1400FB6F894DEBF0FBECDBF0E9426
:101CB0002C0C00910F04109110042091110430910C
:101CC00012046B017C01C01AD10AE20AF30A40ED4A
:101CD000C41647E0D406E104F10418F48091170417
:101CE000BCC060930F047093100480931104909310
:101CF000120410920A04109209041092080410921F
:101D000007041092060461E080910B040E94860B88
:101D10006AEF70E080E090E00E94F20B61E0809159
:101D20000B040E94B60B60E080910B040E94860BAE
:101D300064E170E080E090E00E94F20BF89461E0D2
:101D400080910B040E94860B8BE990E00197F1F7DC
:101D500062E080910B040E94B60B83E290E0019751
:101D6000F1F780E00E94840D672B682B692B21F42A
:101D70001092170478943EC081E00E94840D672B76
:101D8000682B692BA9F38E010F5F1F4F6E018FEB3C
:101D9000C81A8EEFD80A780180E00E94840DF701FE
:101DA000608371838283938381E00E94840DF701B5
:101DB0006483758386839783F8E0EF0EF11CEC143F
:101DC000FD0451F7789420E030E0F8014081518122
:101DD00062817381C480D580E680F780411551050A
:101DE0006105710529F0C114D104E104F10421F465
:101DF0001092170480E031C0F90183E0F595E79572
:101E00008A95E1F7EA5FFB4F8081880F4C155D05ED
:101E10006E057F0508F4816080832F5F3F4F085F68
:101E20001F4F2832310589F620910A0430E0409195
:101E300006048091070490E0840F911D40910804EE
:101E4000840F911D40910904840F911D9927281733
:101E5000390771F681E080931704C05CDE4F0FB63E
:101E6000F894DEBF0FBECDBFDF91CF911F910F91D0
:101E7000FF90EF90DF90CF900895AF92BF92CF92F6
:101E8000DF92EF92FF920F931F93CF93DF9300D0D7
:101E9000CDB7DEB77A836983BA01A901E981FA81F6
:101EA000F770082F10E0000F111F0D5A1C4FD801BA
:101EB0008D919C918E0F9F1F2E0F3F1F2130384018
:101EC00098F07A015B0120E038E06901CE1ADF0A60
:101ED000A6010E94860CA7014C195D09B5016C0D85
:101EE0007D1DF801808191810F900F90DF91CF913E
:101EF0001F910F91FF90EF90DF90CF90BF90AF9028
:101F00000C94860C9F92AF92BF92CF92DF92EF9289
:101F1000FF920F931F93CF93DF93982E8B015A015B
:101F2000690164E270E00E949712E82EF12C65E2EC
:101F300070E0892D0E949712FE2CEE24E82AE7011A
:101F4000C00FD11F9E013770E92CF12CC701880FFB
:101F5000991FAC01455B5C4F7A01FA018081918148
:101F6000820F931FA9014C0D5D1D4130584090F028
:101F700000E018E0021B130BA801B5010E94B60C8B
:101F8000A601401B510BB501600F711FF701808145
:101F9000918102C0A601B5010E94B60CCC0DDD1DD9
:101FA0004D2F64E270E0892D0E946E124C2F65E285
:101FB00070E0892DDF91CF911F910F91FF90EF90ED
:101FC000DF90CF90BF90AF909F900C946E12FF92D5
:101FD0000F931F93CF93DF93F82EC0E0D0E08F2DA7
:101FE0000E94FD0C8C01892B21F08F2D0E94FD0C8D
:101FF000EC01C017D10799F7CE01DF91CF911F9166
:102000000F91FF900895CF93DF93EC018881998120
:10201000009711F00E94E41C198218821D821C8214
:102020001B821A82DF91CF9108950E94461E0F9362
:102030001F93CF93DF93EC0188819981009729F05A
:102040002A813B812617370788F48B016F5F7F4F0A
:102050000E947C1D009761F0998388831B830A830B
:102060002C813D81232B11F4FC01108281E001C001
:1020700080E0DF91CF911F910F910895EF92FF9231
:102080000F931F93CF93DF93FC012481358161155A
:10209000710511F480E019C041155105A9F07B01CB
:1020A000EC018A01020F131FB8010E941710882348
:1020B00089F3288139818C819D81B701820F931F1B
:1020C0000E94541E1D830C8381E0DF91CF911F91EC
:1020D0000F91FF90EF900895EF92FF920F931F934F
:1020E000CF93DF93CDB7DEB764970FB6F894DEBF1A
:1020F0000FBECDBF7C01CB01BA018E010F5F1F4F18
:1021000022E044E00E94D917FC0101900020E9F789
:102110003197AF01481B590BBC01C7010E943E100B
:10212000811103C0C7010E940310C70164960FB656
:10213000F894DEBF0FBECDBFDF91CF911F910F91FD
:10214000FF90EF900895CF93DF93EC016115710537
:1021500061F0FB0101900020E9F73197AF01461BC8
:10216000570B0E943E10811103C0CE010E94031044
:10217000CE01DF91CF910895EF92FF920F931F93BD
:10218000CF93DF93EC017B018A01BA010E94171003
:10219000811104C0CE010E94031007C01D830C836F
:1021A000B701888199810E94541ECE01DF91CF91A1
:1021B0001F910F91FF90EF9008954F925F926F9251
:1021C0007F92EF92FF920F931F93CF93DF93CDB740
:1021D000DEB7A1970FB6F894DEBF0FBECDBF7C016E
:1021E000FA01CB0119A2223008F42AE08E010F5D1A
:1021F0001F4F422E512C612C712CBF01A301920163
:102200000E94B51BF901CA01015011096A3014F48A
:10221000605D01C0695CD8016C93232B242B252BB6
:1022200061F7B801C7010E94DC0AA1960FB6F894C5
:10223000DEBF0FBECDBFDF91CF911F910F91FF90F9
:10224000EF907F906F905F904F900895FC01818D8B
:10225000928D0895FC0184899589089520E531E0E7
:10226000FC0131832083FB01408951896289738994
:10227000FC0142835383648375830895DC01ED91EF
:10228000FC91048CF58DE02D0994CF93DF931F9280
:10229000CDB7DEB76983DC01ED91FC910280F3815B
:1022A000E02D41E050E0BE016F5F7F4F09950F9038
:1022B000DF91CF910895FC019485FB0184859813EB
:1022C00003C081E0943009F480E0089521E0FC012E
:1022D0008485843009F420E0822F08950895CF92F8
:1022E000DF92EF92FF920F931F93CF93DF93CDB7BF
:1022F000DEB7AF970FB6F894DEBF0FBECDBF7C013F
:102300006A0100E511E01A8309831C861B8688EEAA
:1023100093E0A0E0B0E08D879E87AF87B88B88EC14
:1023200091E09A878987188F0F8B198E1A8E1B8ED2
:102330001C8E84E089A31DA30CA31EA21FA218A6B5
:1023400019A68091FA039091FB03A091FC03B09130
:10235000FD038CA79DA7AEA7BFA78B839C83AD83EE
:10236000BE8318861F82AE014C5D5F4FCE01019681
:102370000E94B90281309105B1F4D701ED91FC9131
:102380000488F589E02D1BA70AA78EA19FA1A8A507
:10239000B9A58CA79DA7AEA7BFA7A601BE01665D84
:1023A0007F4FC7010995AF960FB6F894DEBF0FBEF9
:1023B000CDBFDF91CF911F910F91FF90EF90DF90F4
:1023C000CF900895CF93DF93EC01888D843061F036
:1023D0000E943A09E88DF0E0EE0FFF1FEA59FB4F2B
:1023E0001182108284E0888FDF91CF910895EF925F
:1023F000FF921F93CF93DF93FC01208D243011F0C7
:1024000080E01CC07B01EC0110E0812F0E944E098E
:10241000811102C0188F05C08831E1F31F5F1430AD
:10242000A1F7888D843061F3FD86EC861A8E198EB3
:1024300020E0A70162E00E94150D81E0DF91CF91BD
:102440001F91FF90EF9008950F931F93CF93DF9309
:102450001F92CDB7DEB78C01DC01ED91FC910084B9
:10246000F185E02D0995892B51F0BE016F5F7F4FFB
:10247000F80184850E94590D898190E002C08FEF98
:102480009FEF0F90DF91CF911F910F910895FC0165
:1024900084850C942908CF93DF931F92CDB7DEB7C4
:1024A00041E050E0BE016F5F7F4FFC0184850E94D8
:1024B0002908181619061CF4898190E002C08FEFD4
:1024C0009FEF0F90DF91CF910895FC0184858430B8
:1024D00011F00C94070880E090E008950F931F938B
:1024E000CF93DF931F92CDB7DEB7282F30E02C5F5C
:1024F0003F4F322F22278901060F171F49830E9461
:10250000840C80EF0E94A705812F0E94A705802FD1
:102510000E94A7054981842F0E94A7050E94820C72
:1025200081E00F90DF91CF911F910F9108950F934C
:102530001F93CF93DF931F92CDB7DEB790E0049641
:10254000982F88278C01060F171F0E94840C8FE09C
:102550000E94A705812F0E94A705802F0E94A70532
:1025600080E00E94A70589830E94820C89810F90D8
:10257000DF91CF911F910F910895CF93DF93C82FD3
:10258000D62F472F60E170E00E946E124D2F61E15F
:1025900070E08C2FDF91CF910C946E12FC0184853A
:1025A000843011F00C944E0980E008958F929F9230
:1025B000AF92BF92CF92DF92EF92FF920F931F9351
:1025C000CF93DF93CDB7DEB72D970FB6F894DEBF6C
:1025D0000FBECDBF7C0100E010E038EE832E33E06B
:1025E000932EA12CB12C4AE7C42E41E0D42E1C829C
:1025F0001B828D829E82AF82B886DA82C9820D8765
:10260000CE0101960E94CE12811125C0F7014481AE
:10261000558120E061E0802F0E94150D80E590E05B
:102620000E94B20163E070E0802F0E949712833114
:1026300029F462E070E0802F0E94360E0E94B10102
:10264000F70184819581000F111FF801EA59FB4FB2
:102650009183808305C00F5F1F4F0430110539F649
:102660002D960FB6F894DEBF0FBECDBFDF91CF9190
:102670001F910F91FF90EF90DF90CF90BF90AF90A0
:102680009F908F900895CF93DF93FC012485243091
:10269000D1F0EC010E94CE12843181F0882371F0D8
:1026A000883161F08C3161F4E881F9810084F18531
:1026B000E02DCE01099521E0892B19F420E001C01D
:1026C00021E0822F01C080E0DF91CF910895CF9269
:1026D000DF92EF92FF921F93CF93DF93FC0114855B
:1026E0001430A9F1EC0180E590E00E94B20168E0AD
:1026F00070E0812F0E94360E0E94B1010E942C0CC6
:102700006B017C01CE010E94CE128823B1F061E002
:1027100070E080E090E00E94F20B0E942C0CDC0143
:10272000CB018C199D09AE09BF09883E9340A105D4
:10273000B10540F38C850E943A09EC85F0E0EE0F7C
:10274000FF1FEA59FB4F1182108284E08C87DF91D2
:10275000CF911F91FF90EF90DF90CF9008954F920F
:102760005F926F927F928F929F92AF92BF92CF9221
:10277000DF92EF92FF921F93CF93DF93CDB7DEB737
:102780002D970FB6F894DEBF0FBECDBF7C0196E645
:10279000A92E94E0B92E10E0C12CD12C28EE422EA7
:1027A00023E0522E612C712C3AE7832E31E0932ED8
:1027B0001C821B824D825E826F8278869A82898219
:1027C0001D87D5012D913D915D01F7018481958192
:1027D00028173907B1F4CE0101960E94CE12843138
:1027E00069F0CE0101960E94CE128C3151F4CE01D7
:1027F00001960E946512892B91F003C0CC24C394EA
:10280000D12C1F5F1430A1F6CD2871F4D701ED91C2
:10281000FC910084F185E02DC701099505C0CE012A
:1028200001960E946713EDCF2D960FB6F894DEBF88
:102830000FBECDBFDF91CF911F91FF90EF90DF9042
:10284000CF90BF90AF909F908F907F906F905F9050
:102850004F9008952F923F924F925F926F927F9286
:102860008F929F92AF92BF92CF92DF92EF92FF92A0
:102870000F931F93CF93DF93CDB7DEB72E970FB68D
:10288000F894DEBF0FBECDBF7C016B015A010E94E0
:10289000AF1306E614E020E0612C712C88EE282EA0
:1028A00083E0382E412C512C9AE7892E91E0992E05
:1028B0001C821B822D823E824F8258869A82898298
:1028C0002D87F801419151918F01F7018481958104
:1028D0004817590741F4CE0101962E870E94CE1267
:1028E0002E858731E9F02F5F243011F7C3012E9632
:1028F0000FB6F894DEBF0FBECDBFDF91CF911F9111
:102900000F91FF90EF90DF90CF90BF90AF909F908E
:102910008F907F906F905F904F903F902F90089591
:10292000A501B601CE0101962E870E94B501680E61
:10293000791E2E85D8CFEEE1F4E080E591E0918319
:1029400080831282138214821582EBE5F3E01382F6
:10295000128248EE53E060E070E044835583668362
:10296000778322E131E03183208325EC30E0358725
:10297000248724EC30E03787268720EC30E0318B49
:10298000208B21EC30E0338B228B22EC30E0358B36
:10299000248B26EC30E0378B268B118E128E138E13
:1029A000148EE4E2F4E09183808312821382148215
:1029B0001582EAE2F4E0918380831282138214820A
:1029C0001582E0E3F4E09183808312821382148203
:1029D0001582E6E3F4E091838083128213821482ED
:1029E0001582E8EFF3E091838083128213821482D0
:1029F0001582E0E0F4E091838083128213821482D6
:102A00001582ECE3F4E091838083128213821482B6
:102A10001582E2E4F4E091838083128213821482AF
:102A20001582E8E4F4E09183808312821382148299
:102A30001582EEE4F4E09183808312821382148283
:102A40001582E4E5F4E0918380831282138214827C
:102A50001582EAE5F4E09183808312821382148266
:102A60001582E0E6F4E0918380831282138214825F
:102A70001582E8E1F4E01382128286E391E091830B
:102A8000808380E590E095838483A6E0B4E085E0D0
:102A900015968C93159786E116968C931697EDEA0A
:102AA000F1E0E4911796EC931797E9E9F1E0E491EE
:102AB0001896EC93189740E85EE360E070E01D968E
:102AC0004D935D936D937C9350970895CF93DF93CF
:102AD000CDB7DEB7A8970FB6F894DEBF0FBECDBF57
:102AE000789484B5826084BD84B5816084BD85B5E9
:102AF000826085BD85B5816085BD80916E008160F5
:102B000080936E001092810080918100826080939A
:102B1000810080918100816080938100809180009C
:102B20008160809380008091B10084608093B100C7
:102B30008091B00081608093B00080917A008460C1
:102B400080937A0080917A00826080937A008091ED
:102B50007A00816080937A0080917A008068809307
:102B60007A001092C100E0916B03F0916C0382E057
:102B70008083E0916703F09168031082E09169031C
:102B8000F0916A038FEC808310927303E0916F03DE
:102B9000F091700386E08083E0916D03F0916E0305
:102BA000808180618083E0916D03F0916E0380816C
:102BB00088608083E0916D03F0916E03808180686E
:102BC0008083E0916D03F0916E0380818F7D80831F
:102BD0000E94C1058F3F39F467E472E08BE593E012
:102BE0000E94F10AFFCF0E940C0662E080910B0464
:102BF0000E94B60B80E398EFAFEFBFEF80930F0416
:102C000090931004A0931104B093120488E194E00F
:102C10000E94D61238EE432E33E0532E612C712CD5
:102C20004AE7242E41E0342E8E010F5D1F4F0E9493
:102C3000C105833011F00E940C0688E194E00E94E7
:102C4000AF1326E6E22E24E0F22ED12C1C821B824A
:102C50004D825E826F8278863A822982DD86F70114
:102C6000219131917F0180911C0490911D042817BE
:102C7000390739F5CE0101960E94CE12873111F045
:102C80008C31F9F4CE0101960E946512892BC9F0AE
:102C90008B819C81998B888B8D819E81AF81B8853A
:102CA0008A8B9B8BAC8BBD8B89859A85AB85BC85CC
:102CB0008E8B9F8BA88FB98F3F862E868D858A8FAE
:102CC0000DC0D394F4E0DF12C1CF198A188A4A8A62
:102CD0005B8A6C8A7D8A3F862E86DA8E8A8D843066
:102CE00009F447C16FE572E08BE593E00E94F10AB9
:102CF0001AA219A21CA21BA21EA21DA240E050E013
:102D000066E472E0C8010E94BC10FF24F394CE0177
:102D10000E960E944313882309F417C1CE010E9624
:102D20000E946512892B99F3CE010E960E944B12D8
:102D3000282F682F8BE593E028A70E94FA0928A581
:102D40002A3009F09FC0FF2001F30E94460E88231D
:102D5000A9F180910C048B3039F180F185518230DA
:102D600068F56091060470E080E090E00E945F1AD0
:102D700020E030E040E853E40E94C01A6B017C017F
:102D80006091070470E080E090E00E94611A9B016E
:102D9000AC01C701B6010E94D81B2DEC3CEC4CECF9
:102DA0005DE30E94C01A07C06091060470E080E0F5
:102DB00090E00E945F1A4B015C0106C0812C912CAF
:102DC00090ECA92E9FE7B92E0E94460E882309F4A5
:102DD000D3C080910C048B3029F0E8F1855182300A
:102DE00058F039C06091080470E080E090E00E94E3
:102DF0005F1A6B017C0135C0809108048FA3682F96
:102E00006F7770E080E090E00E94611A20E030E08F
:102E100040E853E40E94C01A6B017C0160910904F0
:102E200070E080E090E00E94611A9B01AC01C70154
:102E3000B6010E94D81B2DEC3CEC4CEC5DE30E94EB
:102E4000C01A6B017C01EFA1E7FF0BC0F7FAF09409
:102E5000F7F8F09406C0C12CD12C80ECE82E8FE757
:102E6000F82EA5019401C501B4010E94441C8111F2
:102E700083C0A7019601C701B6010E94441C8823A4
:102E800031F07AC02D3009F442CFF12C40CF1C8EA6
:102E90001B8E1E8E1D8E18A21F8E48E250E064E12C
:102EA00073E0CE014B960E94BC101A8219821C82DC
:102EB0001B821E821D826B8D7C8D6115710509F44C
:102EC00063C04F8D58A1CE0101960E94BC10B50180
:102ED000A401CE0101960E946C1060E772E00E948E
:102EE000A310B701A6010E946C106FE772E00E9468
:102EF000A3108017910709F04CC089819A810E9424
:102F0000E41C8B8D9C8D0E94E41C62E872E0CE0173
:102F10000E960E94F10A62E972E0CE010E960E94BE
:102F2000F10A61EB72E0CE010E960E94F10A4DA10A
:102F30005EA169A17AA1CE010E960E94B50164E45A
:102F400072E0CE010E960E94DC0A68EE73E080E02B
:102F500090E00E94F20BCE010E960E94671363EC84
:102F600072E08BE593E00E94F10A89A19AA10E9488
:102F7000E41C0E94630A5BCE4CE350E067ED72E014
:102F8000C8010E94BC10C1CFCE0101960E9403105F
:102F90009ECFFC01608171816115710531F0448122
:102FA0005581C8010E94BC10A8CFC8010E9403101F
:102FB000A4CFEF920F931F93CF93DF93E80147FDC8
:102FC00002C034E001C034E1E42F440FFF0BF7FFEF
:102FD00003C0F195E195F109E32E022F2E2FAE01EA
:102FE0000E94F917CE01DF91CF911F910F91EF90C1
:102FF00008954F925F926F927F929F92AF92BF928D
:10300000CF92DF92EF92FF920F931F93CF93DF93B4
:10301000CDB7DEB729970FB6F894DEBF0FBECDBF90
:103020006A01122FB02E2BE3201720F0FF24F39417
:10303000F00E02C0BCE3FB2E0F2D27E0AE014F5F68
:103040005F4F0E948719AC018981982F9970913048
:1030500031F0E1FC06C0E0FE06C090E205C09DE252
:1030600003C09BE201C090E0EE2DE07183FF3CC005
:10307000911102C083E001C084E0811718F4212F70
:10308000281B01C020E0E1110BC0F601822F30E2C5
:10309000882319F031938150FBCFC20ED11C20E060
:1030A000992329F0D6019C93F60131966F01C60150
:1030B0000396E2FE0AC03EE4D6013C9341E4119639
:1030C0004C93119712963C9306C03EE6F60130836E
:1030D00041E641833283FC01322F40E2332309F47D
:1030E00042C041933150FACF82FF44C0911102C0D7
:1030F00083E001C084E0811718F4212F281B01C050
:1031000020E0E1110BC0F601822F30E2882319F094
:1031100031938150FBCFC20ED11C20E0992329F0BE
:10312000D6019C93F60131966F01C6010396E2FE2B
:103130000BC039E4D6013C933EE411963C931197C1
:1031400036E412963C9307C039E6F60130833EE63A
:10315000318336E63283FC01322F40E2332319F00B
:1031600041933150FBCFFC01E20FF11D10828EEF35
:103170009FEFB7C0F1E0911101C0F0E06F2F70E058
:103180001416150624F49A012F5F3F4F02C021E068
:1031900030E0260F371FBB2029F06B2D70E06F5FEA
:1031A0007F4F02C060E070E0260F371F612F70E094
:1031B000261737071CF4121B212F01C020E03E2DDB
:1031C000387159F4D601322F60E2332319F06D9330
:1031D0003150FBCFC20ED11C20E0FF2331F0D601CD
:1031E0009C93B6016F5F7F4F6B01E1110BC0F6013D
:1031F000922F30E3992319F031939150FBCFC20EF7
:10320000D11C20E09F2D940F3A81782F7071A72E4A
:1032100084FF03C0313309F49150191624F4993016
:1032200018F098E001C091E0E42F852F57FF02C00D
:10323000E0E080E06E2F782FE0E0F0E0AEE29A2E42
:103240003A01691A71082A01461A570A0B2D10E033
:103250001195019511096F3F8FEF780729F4D60179
:103260009C92C60101966C014617570784F06616BA
:1032700077066CF47F01E40CF51CA1E0B0E0AC0F24
:10328000BD1FEA0EFB1ED7011196BC9002C090E351
:10329000B92E615071093196C60101967C01601703
:1032A000710724F0D601BC926C01D5CF6417750765
:1032B00041F4363320F4353321F4A11002C081E308
:1032C000B82EF601B082F701822F90E2882319F020
:1032D00091938150FBCFF701E20FF11D108280E046
:1032E00090E029960FB6F894DEBF0FBECDBFDF91F8
:1032F000CF911F910F91FF90EF90DF90CF90BF90F3
:10330000AF909F907F906F905F904F90089528307E
:1033100008F027E03327DA01990F311D87FD91600E
:1033200000966105710539F432602E5F3D9330E3FC
:103330002A95E1F708959F3F30F0803871056105C7
:1033400009F03C5F3C5F3D93913008F08068911D2F
:10335000DF93CF931F930F93FF92EF92192F987FD4
:103360009695E92F96959695E90FFF27EE53FF4F17
:1033700099273327EE24FF24A701E701059008943D
:10338000079428F4360FE71EF81E491F511D660FDB
:10339000771F881F991F0694A1F70590079428F4BA
:1033A000E70EF81E491F561FC11D770F881F991F72
:1033B000661F0694A1F70590079428F4F80E491F9C
:1033C000561FC71FD11D880F991F661F771F0694B0
:1033D000A1F70590079420F4490F561FC71FD81F67
:1033E000990F661F771F881F0694A9F7849110957F
:1033F000177041F0D695C79557954795F794E79480
:103400001A95C1F7E8E6F0E06894159015913591AA
:103410006591959105907FE27395E118F10A430B50
:10342000560BC90BD009C0F7E10CF11E431F561F04
:10343000C91FD01D7EF4703311F48A95E6CFE8944D
:10344000015030F0080F0AF40027021708F4202F6B
:103450002395022F7A3328F079E37D932A95E9F7B3
:1034600010C07D932A9589F60694979567953795B0
:1034700017951794E118F10A430B560BC90BD009A5
:1034800098F023957E9173957A3308F070E37C93DE
:103490002013B8F77E9170617D9330F0839571E3CE
:1034A0007D9370E32A95E1F71124EF90FF900F913F
:1034B0001F91CF91DF91992787FD90950895E8940A
:1034C00009C097FB3EF490958095709561957F4F6C
:1034D0008F4F9F4F9923A9F0F92F96E9BB2793951A
:1034E000F695879577956795B795F111F8CFFAF42A
:1034F000BB0F11F460FF1BC06F5F7F4F8F4F9F4F5B
:1035000016C0882311F096E911C0772321F09EE8B8
:10351000872F762F05C0662371F096E8862F70E01E
:1035200060E02AF09A95660F771F881FDAF7880FF8
:103530009695879597F90895990F0008550FAA0B4E
:10354000E0E8FEEF16161706E807F907C0F01216B6
:103550001306E407F50798F0621B730B840B950BB9
:1035600039F40A2661F0232B242B252B21F408950E
:103570000A2609F4A140A6958FEF811D811D0895AB
:103580000E94D31A0C94441B0E94361B38F00E94F0
:103590003D1B20F0952311F00C942D1B0C94331B34
:1035A00011240C94781B0E94551B70F3959FC1F356
:1035B000950F50E0551F629FF001729FBB27F00DE1
:1035C000B11D639FAA27F00DB11DAA1F649F662736
:1035D000B00DA11D661F829F2227B00DA11D621F85
:1035E000739FB00DA11D621F839FA00D611D221F3F
:1035F000749F3327A00D611D231F849F600D211D23
:10360000822F762F6A2F11249F5750409AF0F1F0A5
:1036100088234AF0EE0FFF1FBB1F661F771F881F0E
:1036200091505040A9F79E3F510580F00C942D1BFE
:103630000C94781B5F3FE4F3983ED4F3869577951E
:103640006795B795F795E7959F5FC1F7FE2B880FB4
:10365000911D9695879597F9089597F99F6780E84A
:1036600070E060E008959FEF80EC089500240A94D4
:103670001616170618060906089500240A9412164D
:103680001306140605060895092E0394000C11F480
:10369000882352F0BB0F40F4BF2B11F460FF04C02D
:1036A0006F5F7F4F8F4F9F4F089557FD9058440F86
:1036B000551F59F05F3F71F04795880F97FB991F91
:1036C00061F09F3F79F0879508951216130614064E
:1036D000551FF2CF4695F1DF08C0161617061806DB
:1036E000991FF1CF86957105610508940895E894B6
:1036F000BB2766277727CB0197F908952F923F9232
:103700004F925F926F927F928F929F92AF92BF92F1
:10371000CF92DF92EF92FF920F931F93CF93DF939D
:10372000CDB7DEB7CA1BDB0B0FB6F894DEBF0FBEFA
:10373000CDBF09942A88398848885F846E847D8447
:103740008C849B84AA84B984C884DF80EE80FD8049
:103750000C811B81AA81B981CE0FD11D0FB6F894BF
:10376000DEBF0FBECDBFED010895A1E21A2EAA1B48
:10377000BB1BFD010DC0AA1FBB1FEE1FFF1FA21721
:10378000B307E407F50720F0A21BB30BE40BF50B1E
:10379000661F771F881F991F1A9469F760957095A7
:1037A000809590959B01AC01BD01CF0108955058C3
:1037B000BB27AA270E94EF1B0C94441B0E94361BB8
:1037C00038F00E943D1B20F039F49F3F19F426F495
:1037D0000C94331B0EF4E095E7FB0C942D1BE92FA2
:1037E0000E94551B58F3BA176207730784079507A1
:1037F00020F079F4A6F50C94771B0EF4E0950B2ECF
:10380000BA2FA02D0B01B90190010C01CA01A00132
:103810001124FF27591B99F0593F50F4503E68F18D
:103820001A16F040A22F232F342F4427585FF3CFCE
:10383000469537952795A795F0405395C9F77EF49F
:103840001F16BA0B620B730B840BBAF09150A1F0E8
:10385000FF0FBB1F661F771F881FC2F70EC0BA0F6E
:10386000621F731F841F48F4879577956795B795F6
:10387000F7959E3F08F0B0CF9395880F08F09927F1
:10388000EE0F9795879508950E949C1A880B990BC7
:103890000895EE0FFF1F0590F491E02D0994CF934A
:1038A000DF938230910510F482E090E0E0917104A2
:1038B000F091720420E030E0C0E0D0E0309711F1E8
:1038C0004081518148175907C0F04817590761F4E2
:1038D00082819381209719F09B838A832BC09093D8
:1038E00072048093710426C02115310519F0421726
:1038F000530718F49A01BE01DF01EF010280F38142
:10390000E02DDCCF2115310509F1281B390B2430BE
:10391000310590F412968D919C9113976115710564
:1039200021F0FB019383828304C0909372048093FF
:103930007104FD01329644C0FD01E20FF31F819333
:103940009193225031092D933C933AC020916F04FA
:1039500030917004232B41F4209104013091050132
:103960003093700420936F04209102013091030181
:103970002115310541F42DB73EB740910601509114
:103980000701241B350BE0916F04F0917004E217DE
:10399000F307A0F42E1B3F0B2817390778F0AC0172
:1039A0004E5F5F4F2417350748F04E0F5F1F50934F
:1039B000700440936F048193919302C0E0E0F0E0C3
:1039C000CF01DF91CF9108950F931F93CF93DF9392
:1039D000009709F48CC0FC01329713821282009187
:1039E0007104109172040115110581F42081318157
:1039F000820F931F20916F043091700428173907AC
:103A000079F5F0937004E0936F0471C0D80140E041
:103A100050E0AE17BF0750F412962D913C911397CA
:103A2000AD012115310509F1D901F3CF9D01DA016D
:103A30003383228360817181860F971F82179307DA
:103A400069F4EC0128813981260F371F2E5F3F4F23
:103A5000318320838A819B8193838283452B29F440
:103A6000F0937204E093710442C01396FC93EE93BA
:103A70001297ED01499159919E01240F351FE217CC
:103A8000F30771F480819181840F951F029611963E
:103A90009C938E938281938113969C938E9312971D
:103AA000E0E0F0E0D80112968D919C911397009779
:103AB00019F0F8018C01F6CF8D919C9198012E5F41
:103AC0003F4F820F931F20916F043091700428178D
:103AD000390769F4309729F4109272041092710436
:103AE00002C0138212821093700400936F04DF915E
:103AF000CF911F910F910895A0E0B0E0E2E8FDE1C1
:103B00000C94821BEC01009721F4CB010E944F1C06
:103B1000B8C0FC01E60FF71F9C0122503109E217E3
:103B2000F30708F4ACC0D9010D911C911197061749
:103B30001707B0F00530110508F49FC0C8010497BD
:103B40008617970708F499C002501109061B170B36
:103B5000019311936D937C93CF010E94E41C8DC05F
:103B60005B01A01AB10A4C01800E911EA091710454
:103B7000B091720440E050E0E12CF12C109709F470
:103B80004AC0A815B905D1F56D907C9011976301D5
:103B900082E0C80ED11CCA14DB0480F1A3014A19CB
:103BA0005B096A0182E0C80ED11C1296BC90129784
:103BB0001396AC91B5E0CB16D10440F0B282A3834A
:103BC00051834083D9016D937C930AC00E5F1F4FD0
:103BD000C301800F911FF90191838083EB2DFA2F90
:103BE000E114F10431F0D7011396FC93EE93129790
:103BF00044C0F0937204E09371043FC08D919C9196
:103C000011974817590708F4AC017D0112960D90E1
:103C1000BC91A02DB3CF80916F0490917004881552
:103C20009905E1F446175707C8F480910201909175
:103C30000301009741F48DB79EB740910601509162
:103C40000701841B950BE817F907C8F4F09370047B
:103C5000E0936F04F901718360830FC0CB010E9470
:103C60004F1C7C01009759F0A801BE010E944B1E19
:103C7000CE010E94E41CC70104C0CE0102C080E056
:103C800090E0CDB7DEB7EEE00C949E1B81E090E0B3
:103C9000F8940C945B1EFB01DC0102C001900D92B4
:103CA00041505040D8F70895FB01DC0101900D927E
:0A3CB0000020E1F70895F894FFCF1B
:103CBA0000C000007304800001005E0000000000E4
:103CCA000000FA0967099209410AC309A109B5095D
:103CDA000000000015106709310130011510151098
:103CEA0015100000000045112A1431013001D612C6
:103CFA0000000000151067093101300100000000C2
:103D0A00920A00000000151000000000151015109E
:103D1A003101151015101510151015101510151064
:103D2A00151015101510000000000901B501310128
:103D3A006E1165124B1224122902340547126713B9
:103D4A00431366112B0129015B111F0100000000BA
:103D5A001510151031011510151015101510151024
:103D6A002E01151015101510151015101510151017
:103D7A001510151000000000B106CF073101B0067A
:103D8A002611B808B607F7113F07E211FF066F11AF
:103D9A00C706E10899083E112E112A11436F6E6E6B
:103DAA00656374696E6720746F204150202E2E2E31
:103DBA0000417474656D7074696E6720746F206356
:103DCA006F6E6E65637420746F2057504120535391
:103DDA0049443A2000526F6D00363736363836334A
:103DEA0030303000436F6E6E656374656420746FA3
:103DFA00204150000D0A00576946692073686965B9
:103E0A006C64206E6F742070726573656E74004303
:103E1A006C69656E7420636F6E6E656374656400A9
:103E2A002C202268756D6964697479223A20007DB4
:103E3A007D00485454502F312E3120323030204FDB
:103E4A004B00436F6E74656E742D547970653A2019
:103E5A006170706C69636174696F6E2F6A736F6EDB
:103E6A0000436F6E6E656374696F6E3A20636C6FA0
:103E7A00736500436C69656E7420646973636F6E61
:103E8A006E6563746564007B22726573756C742257
:103E9A003A203530302C20226D65737361676522B4
:103EAA003A20224661696C656420746F20726561EC
:103EBA00642066726F6D204448542073656E736F78
:103ECA0072227D007B22726573756C74223A2032ED
:103EDA0030302C202264617461223A207B2274657E
:0E3EEA006D7065726174757265223A20000079
:107800000C94343C0C94513C0C94513C0C94513CE1
:107810000C94513C0C94513C0C94513C0C94513CB4
:107820000C94513C0C94513C0C94513C0C94513CA4
:107830000C94513C0C94513C0C94513C0C94513C94
:107840000C94513C0C94513C0C94513C0C94513C84
:107850000C94513C0C94513C0C94513C0C94513C74
:107860000C94513C0C94513C11241FBECFEFD8E036
:10787000DEBFCDBF11E0A0E0B1E0ECE9FFE702C060
:1078800005900D92A230B107D9F712E0A2E0B1E065
:1078900001C01D92AD30B107E1F70E942D3D0C945F
:1078A000CC3F0C94003C982F959595959595959582
:1078B000905D8F708A307CF0282F295A8091C0000B
:1078C00085FFFCCF9093C6008091C00085FFFCCF60
:1078D0002093C6000895282F205DF0CF982F809127
:1078E000C00085FFFCCF9093C6000895EF92FF92F1
:1078F0000F931F93EE24FF2487018091C00087FD22
:1079000017C00894E11CF11C011D111D81E4E8164B
:1079100082E4F8068FE0080780E0180770F3E09132
:107920000401F091050109958091C00087FFE9CF1E
:107930008091C6001F910F91FF90EF9008950E94D3
:10794000763C982F8091C00085FFFCCF9093C600B5
:1079500091362CF490330CF09053892F089597555D
:10796000892F08951F930E949F3C182F0E949F3CCF
:107970001295107F810F1F9108951F93182F882350
:1079800021F00E94763C1150E1F71F9108951F935A
:10799000182F0E94763C803249F0809103018F5F5E
:1079A000809303018530C1F01F9108958091C0003C
:1079B00085FFFCCF84E18093C6008091C00085FFE5
:1079C000FCCF1093C6008091C00085FFFCCF80E102
:1079D0008093C6001F910895E0910401F091050184
:1079E00009951F9108950E94763C803241F0809164
:1079F00003018F5F80930301853081F008958091AA
:107A0000C00085FFFCCF84E18093C6008091C00058
:107A100085FFFCCF80E18093C6000895E0910401CA
:107A2000F09105010995089540E951E08823A1F0FE
:107A30002D9A28EE33E0FA013197F1F721503040CA
:107A4000D1F72D9828EE33E0FA013197F1F7215064
:107A50003040D1F7815061F708953F924F925F9285
:107A60006F927F928F929F92AF92BF92CF92DF924E
:107A7000EF92FF920F931F93CF93DF93000080E16B
:107A80008093C4001092C50088E18093C10086E015
:107A90008093C2005098589A259A81E00E94143D24
:107AA00024E1F22E9EE1E92E85E9D82E0FE0C02ECA
:107AB00010E1B12EAA24A394B1E49B2EA6E58A2E50
:107AC000F2E57F2EE0E26E2E79E4572E63E5462E36
:107AD00050E5352E0E94763C8033B1F18133B9F107
:107AE000803409F46FC0813409F476C0823409F41B
:107AF00085C0853409F488C0803531F1823521F1A3
:107B0000813511F1853509F485C0863509F48DC0BC
:107B1000843609F496C0843709F403C1853709F423
:107B200072C1863709F466C0809103018F5F80932C
:107B30000301853079F6E0910401F0910501099582
:107B40000E94763C803351F60E94F33CC3CF0E94E2
:107B5000763C803249F78091C00085FFFCCFF092DF
:107B6000C6008091C00085FFFCCF9092C600809136
:107B7000C00085FFFCCF8092C6008091C00085FFC9
:107B8000FCCF7092C6008091C00085FFFCCF609250
:107B9000C6008091C00085FFFCCF5092C600809146
:107BA000C00085FFFCCF4092C6008091C00085FFD9
:107BB000FCCF3092C6008091C00085FFFCCFB09210
:107BC000C60088CF0E94763C863808F4BDCF0E945C
:107BD000763C0E94F33C7ECF0E94763C803809F4CC
:107BE0009CC0813809F40BC1823809F43CC1883942
:107BF00009F48FC080E00E94C73C6CCF84E10E94F2
:107C0000BD3C0E94F33C66CF85E00E94BD3C0E94D3
:107C1000F33C60CF0E94763C809306010E94763C44
:107C2000809307010E94F33C55CF0E94763C80333D
:107C300009F41DC183E00E94BD3C80E00E94C73C66
:107C400049CF0E94763C809309020E94763C809343
:107C5000080280910C028E7F80930C020E94763C79
:107C6000853409F415C18091080290910902892B8D
:107C700089F000E010E00E94763CF801E85FFE4FDA
:107C800080830F5F1F4F80910802909109020817AF
:107C9000190788F30E94763C803209F045CF809125
:107CA0000C0280FF01C16091060170910701660F0F
:107CB000771F7093070160930601A0910802B091AD
:107CC00009021097C9F0E8E0F1E09B01AD014E0F09
:107CD0005F1FF999FECF32BD21BD819180BDFA9A17
:107CE000F99A2F5F3F4FE417F50799F76A0F7B1F4B
:107CF00070930701609306018091C00085FFFCCF5F
:107D0000F092C6008091C00085FFFCCFB092C60003
:107D1000E1CE83E00E94C73CDDCE82E00E94C73CFA
:107D2000D9CE0E94763C809309020E94763C8093D3
:107D300008028091060190910701880F991F909386
:107D40000701809306010E94763C853409F4A6C0A1
:107D500080910C028E7F80930C020E94763C8032D0
:107D600009F0B8CE8091C00085FFFCCFF092C6002C
:107D7000609108027091090261157105B9F140E046
:107D800050E080910C02A82FA170B82FB27011C0E2
:107D9000BB2309F45CC0E0910601F0910701319624
:107DA000F0930701E09306014F5F5F4F46175707B7
:107DB000E8F4AA2369F3F999FECF209106013091E6
:107DC000070132BD21BDF89A90B58091C00085FFB2
:107DD000FCCF9093C6002F5F3F4F30930701209355
:107DE00006014F5F5F4F4617570718F38091C00099
:107DF00085FDE5CE8091C00085FFF8CFE0CE81E023
:107E00000E94C73C67CE0E94763C803209F08CCE3F
:107E10008091C00085FFFCCFF092C6008091C00029
:107E200085FFFCCFE092C6008091C00085FFFCCFAB
:107E3000D092C6008091C00085FFFCCFC092C600E2
:107E40008091C00085FFFCCFB092C60043CEE09188
:107E50000601F091070194918091C00085FFFCCF4D
:107E60009093C6009CCF80E10E94C73C33CE0E9415
:107E7000763C0E94763C182F0E94763C112309F430
:107E800083C0113009F484C08FE00E94C73C22CE29
:107E900080910C02816080930C02E5CE80910C02EF
:107EA000816080930C0259CF809107018823880F4D
:107EB000880B8A2180930B02809106019091070123
:107EC000880F991F90930701809306018091080203
:107ED00080FF09C080910802909109020196909359
:107EE000090280930802F894F999FECF1127E091D6
:107EF0000601F0910701C8E0D1E08091080290915D
:107F00000902103091F40091570001700130D9F34B
:107F100003E000935700E89500915700017001308D
:107F2000D9F301E100935700E89509901990009169
:107F3000570001700130D9F301E000935700E89534
:107F40001395103498F011270091570001700130FB
:107F5000D9F305E000935700E895009157000170B0
:107F60000130D9F301E100935700E895329602976A
:107F700009F0C7CF103011F00296E5CF112480919F
:107F8000C00085FFB9CEBCCE8EE10E94C73CA2CD19
:0C7F900085E90E94C73C9ECDF894FFCF0D
:027F9C00800063
:040000030000780081
:00000001FF
